{
	"contracts/ROACHCOIN.sol": {
		"BEP20Token": {
			"abi": [
				{
					"inputs": [],
					"stateMutability": "nonpayable",
					"type": "constructor"
				},
				{
					"anonymous": false,
					"inputs": [
						{
							"indexed": true,
							"internalType": "address",
							"name": "owner",
							"type": "address"
						},
						{
							"indexed": true,
							"internalType": "address",
							"name": "spender",
							"type": "address"
						},
						{
							"indexed": false,
							"internalType": "uint256",
							"name": "value",
							"type": "uint256"
						}
					],
					"name": "Approval",
					"type": "event"
				},
				{
					"anonymous": false,
					"inputs": [
						{
							"indexed": true,
							"internalType": "address",
							"name": "burner",
							"type": "address"
						},
						{
							"indexed": false,
							"internalType": "uint256",
							"name": "value",
							"type": "uint256"
						}
					],
					"name": "Burn",
					"type": "event"
				},
				{
					"anonymous": false,
					"inputs": [
						{
							"indexed": true,
							"internalType": "address",
							"name": "previousOwner",
							"type": "address"
						},
						{
							"indexed": true,
							"internalType": "address",
							"name": "newOwner",
							"type": "address"
						}
					],
					"name": "OwnershipTransferred",
					"type": "event"
				},
				{
					"anonymous": false,
					"inputs": [
						{
							"indexed": true,
							"internalType": "address",
							"name": "from",
							"type": "address"
						},
						{
							"indexed": true,
							"internalType": "address",
							"name": "to",
							"type": "address"
						},
						{
							"indexed": false,
							"internalType": "uint256",
							"name": "value",
							"type": "uint256"
						}
					],
					"name": "Transfer",
					"type": "event"
				},
				{
					"inputs": [
						{
							"internalType": "address",
							"name": "owner",
							"type": "address"
						},
						{
							"internalType": "address",
							"name": "spender",
							"type": "address"
						}
					],
					"name": "allowance",
					"outputs": [
						{
							"internalType": "uint256",
							"name": "",
							"type": "uint256"
						}
					],
					"stateMutability": "view",
					"type": "function"
				},
				{
					"inputs": [
						{
							"internalType": "address",
							"name": "spender",
							"type": "address"
						},
						{
							"internalType": "uint256",
							"name": "amount",
							"type": "uint256"
						}
					],
					"name": "approve",
					"outputs": [
						{
							"internalType": "bool",
							"name": "",
							"type": "bool"
						}
					],
					"stateMutability": "nonpayable",
					"type": "function"
				},
				{
					"inputs": [
						{
							"internalType": "address",
							"name": "account",
							"type": "address"
						}
					],
					"name": "balanceOf",
					"outputs": [
						{
							"internalType": "uint256",
							"name": "",
							"type": "uint256"
						}
					],
					"stateMutability": "view",
					"type": "function"
				},
				{
					"inputs": [
						{
							"internalType": "uint256",
							"name": "amount",
							"type": "uint256"
						}
					],
					"name": "burn",
					"outputs": [],
					"stateMutability": "nonpayable",
					"type": "function"
				},
				{
					"inputs": [],
					"name": "decimals",
					"outputs": [
						{
							"internalType": "uint8",
							"name": "",
							"type": "uint8"
						}
					],
					"stateMutability": "view",
					"type": "function"
				},
				{
					"inputs": [
						{
							"internalType": "address",
							"name": "spender",
							"type": "address"
						},
						{
							"internalType": "uint256",
							"name": "subtractedValue",
							"type": "uint256"
						}
					],
					"name": "decreaseAllowance",
					"outputs": [
						{
							"internalType": "bool",
							"name": "",
							"type": "bool"
						}
					],
					"stateMutability": "nonpayable",
					"type": "function"
				},
				{
					"inputs": [],
					"name": "getOwner",
					"outputs": [
						{
							"internalType": "address",
							"name": "",
							"type": "address"
						}
					],
					"stateMutability": "view",
					"type": "function"
				},
				{
					"inputs": [
						{
							"internalType": "address",
							"name": "spender",
							"type": "address"
						},
						{
							"internalType": "uint256",
							"name": "addedValue",
							"type": "uint256"
						}
					],
					"name": "increaseAllowance",
					"outputs": [
						{
							"internalType": "bool",
							"name": "",
							"type": "bool"
						}
					],
					"stateMutability": "nonpayable",
					"type": "function"
				},
				{
					"inputs": [],
					"name": "name",
					"outputs": [
						{
							"internalType": "string",
							"name": "",
							"type": "string"
						}
					],
					"stateMutability": "view",
					"type": "function"
				},
				{
					"inputs": [],
					"name": "owner",
					"outputs": [
						{
							"internalType": "address",
							"name": "",
							"type": "address"
						}
					],
					"stateMutability": "view",
					"type": "function"
				},
				{
					"inputs": [],
					"name": "renounceOwnership",
					"outputs": [],
					"stateMutability": "nonpayable",
					"type": "function"
				},
				{
					"inputs": [],
					"name": "symbol",
					"outputs": [
						{
							"internalType": "string",
							"name": "",
							"type": "string"
						}
					],
					"stateMutability": "view",
					"type": "function"
				},
				{
					"inputs": [],
					"name": "totalSupply",
					"outputs": [
						{
							"internalType": "uint256",
							"name": "",
							"type": "uint256"
						}
					],
					"stateMutability": "view",
					"type": "function"
				},
				{
					"inputs": [
						{
							"internalType": "address",
							"name": "recipient",
							"type": "address"
						},
						{
							"internalType": "uint256",
							"name": "amount",
							"type": "uint256"
						}
					],
					"name": "transfer",
					"outputs": [
						{
							"internalType": "bool",
							"name": "",
							"type": "bool"
						}
					],
					"stateMutability": "nonpayable",
					"type": "function"
				},
				{
					"inputs": [
						{
							"internalType": "address",
							"name": "sender",
							"type": "address"
						},
						{
							"internalType": "address",
							"name": "recipient",
							"type": "address"
						},
						{
							"internalType": "uint256",
							"name": "amount",
							"type": "uint256"
						}
					],
					"name": "transferFrom",
					"outputs": [
						{
							"internalType": "bool",
							"name": "",
							"type": "bool"
						}
					],
					"stateMutability": "nonpayable",
					"type": "function"
				},
				{
					"inputs": [
						{
							"internalType": "address",
							"name": "newOwner",
							"type": "address"
						}
					],
					"name": "transferOwnership",
					"outputs": [],
					"stateMutability": "nonpayable",
					"type": "function"
				}
			],
			"devdoc": {
				"events": {
					"Approval(address,address,uint256)": {
						"details": "Emitted when the allowance of a `spender` for an `owner` is set by a call to {approve}. `value` is the new allowance."
					},
					"Burn(address,uint256)": {
						"details": "Destroys `amount` tokens from `account`, reducing the total supply. Emits a {Transfer} event with `to` set to the zero address. Requirements - `account` cannot be the zero address. - `account` must have at least `amount` tokens."
					},
					"Transfer(address,address,uint256)": {
						"details": "Emitted when `value` tokens are moved from one account (`from`) to another (`to`). Note that `value` may be zero."
					}
				},
				"kind": "dev",
				"methods": {
					"allowance(address,address)": {
						"details": "See {BEP20-allowance}."
					},
					"approve(address,uint256)": {
						"details": "See {BEP20-approve}. Requirements: - `spender` cannot be the zero address."
					},
					"balanceOf(address)": {
						"details": "See {BEP20-balanceOf}."
					},
					"decimals()": {
						"details": "Returns the token decimals."
					},
					"decreaseAllowance(address,uint256)": {
						"details": "Atomically decreases the allowance granted to `spender` by the caller. This is an alternative to {approve} that can be used as a mitigation for problems described in {BEP20-approve}. Emits an {Approval} event indicating the updated allowance. Requirements: - `spender` cannot be the zero address. - `spender` must have allowance for the caller of at least `subtractedValue`."
					},
					"getOwner()": {
						"details": "Returns the bep token owner."
					},
					"increaseAllowance(address,uint256)": {
						"details": "Atomically increases the allowance granted to `spender` by the caller. This is an alternative to {approve} that can be used as a mitigation for problems described in {BEP20-approve}. Emits an {Approval} event indicating the updated allowance. Requirements: - `spender` cannot be the zero address."
					},
					"name()": {
						"details": "Returns the token name."
					},
					"owner()": {
						"details": "Returns the address of the current owner."
					},
					"renounceOwnership()": {
						"details": "Leaves the contract without owner. It will not be possible to call `onlyOwner` functions anymore. Can only be called by the current owner. NOTE: Renouncing ownership will leave the contract without an owner, thereby removing any functionality that is only available to the owner."
					},
					"symbol()": {
						"details": "Returns the token symbol."
					},
					"totalSupply()": {
						"details": "See {BEP20-totalSupply}."
					},
					"transfer(address,uint256)": {
						"details": "See {BEP20-transfer}. Requirements: - `recipient` cannot be the zero address. - the caller must have a balance of at least `amount`."
					},
					"transferFrom(address,address,uint256)": {
						"details": "See {BEP20-transferFrom}. Emits an {Approval} event indicating the updated allowance. This is not required by the EIP. See the note at the beginning of {BEP20}; Requirements: - `sender` and `recipient` cannot be the zero address. - `sender` must have a balance of at least `amount`. - the caller must have allowance for `sender`'s tokens of at least `amount`."
					},
					"transferOwnership(address)": {
						"details": "Transfers ownership of the contract to a new account (`newOwner`). Can only be called by the current owner."
					}
				},
				"version": 1
			},
			"evm": {
				"assembly": "    /* \"contracts/ROACHCOIN.sol\":11322:18748  contract BEP20Token is Context, IBEP20, Ownable {... */\n  mstore(0x40, 0x80)\n    /* \"contracts/ROACHCOIN.sol\":11652:11905  constructor()  {... */\n  callvalue\n  dup1\n  iszero\n  tag_1\n  jumpi\n  0x00\n  dup1\n  revert\ntag_1:\n  pop\n    /* \"contracts/ROACHCOIN.sol\":9831:9848  address msgSender */\n  0x00\n    /* \"contracts/ROACHCOIN.sol\":9870:9888  _owner = msgSender */\n  dup1\n  sload\n  not(sub(shl(0xa0, 0x01), 0x01))\n  and\n    /* \"contracts/ROACHCOIN.sol\":3803:3813  msg.sender */\n  caller\n    /* \"contracts/ROACHCOIN.sol\":9870:9888  _owner = msgSender */\n  swap1\n  dup2\n  or\n  dup3\n  sstore\n    /* \"contracts/ROACHCOIN.sol\":9900:9943  OwnershipTransferred(address(0), msgSender) */\n  mload(0x40)\n    /* \"contracts/ROACHCOIN.sol\":3803:3813  msg.sender */\n  swap1\n  swap2\n  dup3\n  swap2\n    /* \"contracts/ROACHCOIN.sol\":9900:9943  OwnershipTransferred(address(0), msgSender) */\n  0x8be0079c531659141344cd1fd0a4f28419497f9722a3daafe3b4186f6b6457e0\n  swap1\n    /* \"contracts/ROACHCOIN.sol\":9831:9848  address msgSender */\n  dup3\n  swap1\n    /* \"contracts/ROACHCOIN.sol\":9900:9943  OwnershipTransferred(address(0), msgSender) */\n  log3\n  pop\n    /* \"contracts/ROACHCOIN.sol\":11674:11698  _name = \"COCKROACH-COIN\" */\n  0x40\n  dup1\n  mload\n  dup1\n  dup3\n  add\n  swap1\n  swap2\n  mstore\n  0x0e\n  dup2\n  mstore\n  shl(0x91, 0x21a7a1a5a927a0a1a416a1a7a4a7)\n  0x20\n  dup3\n  add\n  mstore\n    /* \"contracts/ROACHCOIN.sol\":11674:11679  _name */\n  0x06\n  swap1\n    /* \"contracts/ROACHCOIN.sol\":11674:11698  _name = \"COCKROACH-COIN\" */\n  tag_10\n  swap1\n    /* \"contracts/ROACHCOIN.sol\":11674:11679  _name */\n  dup3\n    /* \"contracts/ROACHCOIN.sol\":11674:11698  _name = \"COCKROACH-COIN\" */\n  tag_11\n  jump\t// in\ntag_10:\n  pop\n    /* \"contracts/ROACHCOIN.sol\":11705:11726  _symbol = \"ROACHCOIN\" */\n  0x40\n  dup1\n  mload\n  dup1\n  dup3\n  add\n  swap1\n  swap2\n  mstore\n  0x09\n  dup2\n  mstore\n  shl(0xb9, 0x2927a0a1a421a7a4a7)\n  0x20\n  dup3\n  add\n  mstore\n    /* \"contracts/ROACHCOIN.sol\":11705:11712  _symbol */\n  0x05\n  swap1\n    /* \"contracts/ROACHCOIN.sol\":11705:11726  _symbol = \"ROACHCOIN\" */\n  tag_12\n  swap1\n    /* \"contracts/ROACHCOIN.sol\":11705:11712  _symbol */\n  dup3\n    /* \"contracts/ROACHCOIN.sol\":11705:11726  _symbol = \"ROACHCOIN\" */\n  tag_11\n  jump\t// in\ntag_12:\n  pop\n    /* \"contracts/ROACHCOIN.sol\":11733:11742  _decimals */\n  0x04\n    /* \"contracts/ROACHCOIN.sol\":11733:11747  _decimals = 18 */\n  dup1\n  sload\n  not(0xff)\n  and\n    /* \"contracts/ROACHCOIN.sol\":11745:11747  18 */\n  0x12\n    /* \"contracts/ROACHCOIN.sol\":11733:11747  _decimals = 18 */\n  or\n  swap1\n  sstore\n    /* \"contracts/ROACHCOIN.sol\":11769:11796  300000000000000000000000000 */\n  0xf8277896582678ac000000\n    /* \"contracts/ROACHCOIN.sol\":11754:11766  _totalSupply */\n  0x03\n    /* \"contracts/ROACHCOIN.sol\":11754:11796  _totalSupply = 300000000000000000000000000 */\n  dup2\n  swap1\n  sstore\n    /* \"contracts/ROACHCOIN.sol\":11813:11823  msg.sender */\n  caller\n    /* \"contracts/ROACHCOIN.sol\":11733:11742  _decimals */\n  0x00\n    /* \"contracts/ROACHCOIN.sol\":11803:11824  _balances[msg.sender] */\n  dup2\n  dup2\n  mstore\n    /* \"contracts/ROACHCOIN.sol\":11733:11747  _decimals = 18 */\n  0x01\n    /* \"contracts/ROACHCOIN.sol\":11803:11824  _balances[msg.sender] */\n  0x20\n  mstore\n  0x40\n  dup1\n  dup3\n  keccak256\n    /* \"contracts/ROACHCOIN.sol\":11803:11839  _balances[msg.sender] = _totalSupply */\n  dup5\n  swap1\n  sstore\n    /* \"contracts/ROACHCOIN.sol\":11853:11899  Transfer(address(0), msg.sender, _totalSupply) */\n  mload\n    /* \"contracts/ROACHCOIN.sol\":11813:11823  msg.sender */\n  swap2\n  swap3\n    /* \"contracts/ROACHCOIN.sol\":11733:11742  _decimals */\n  swap1\n  swap2\n    /* \"contracts/ROACHCOIN.sol\":11853:11899  Transfer(address(0), msg.sender, _totalSupply) */\n  0xddf252ad1be2c89b69c2b068fc378daa952ba7f163c4a11628f55a4df523b3ef\n  swap2\n  tag_13\n  swap2\n    /* \"#utility.yul\":2881:2906   */\n  swap1\n  dup2\n  mstore\n    /* \"#utility.yul\":2869:2871   */\n  0x20\n    /* \"#utility.yul\":2854:2872   */\n  add\n  swap1\n    /* \"#utility.yul\":2735:2912   */\n  jump\n    /* \"contracts/ROACHCOIN.sol\":11853:11899  Transfer(address(0), msg.sender, _totalSupply) */\ntag_13:\n  mload(0x40)\n  dup1\n  swap2\n  sub\n  swap1\n  log3\n    /* \"contracts/ROACHCOIN.sol\":11322:18748  contract BEP20Token is Context, IBEP20, Ownable {... */\n  jump(tag_22)\n    /* \"#utility.yul\":14:141   */\ntag_17:\n    /* \"#utility.yul\":75:85   */\n  0x4e487b71\n    /* \"#utility.yul\":70:73   */\n  0xe0\n    /* \"#utility.yul\":66:86   */\n  shl\n    /* \"#utility.yul\":63:64   */\n  0x00\n    /* \"#utility.yul\":56:87   */\n  mstore\n    /* \"#utility.yul\":106:110   */\n  0x41\n    /* \"#utility.yul\":103:104   */\n  0x04\n    /* \"#utility.yul\":96:111   */\n  mstore\n    /* \"#utility.yul\":130:134   */\n  0x24\n    /* \"#utility.yul\":127:128   */\n  0x00\n    /* \"#utility.yul\":120:135   */\n  revert\n    /* \"#utility.yul\":146:526   */\ntag_18:\n    /* \"#utility.yul\":225:226   */\n  0x01\n    /* \"#utility.yul\":221:233   */\n  dup2\n  dup2\n  shr\n  swap1\n    /* \"#utility.yul\":268:280   */\n  dup3\n  and\n  dup1\n    /* \"#utility.yul\":289:350   */\n  tag_25\n  jumpi\n    /* \"#utility.yul\":343:347   */\n  0x7f\n    /* \"#utility.yul\":335:341   */\n  dup3\n    /* \"#utility.yul\":331:348   */\n  and\n    /* \"#utility.yul\":321:348   */\n  swap2\n  pop\n    /* \"#utility.yul\":289:350   */\ntag_25:\n    /* \"#utility.yul\":396:398   */\n  0x20\n    /* \"#utility.yul\":388:394   */\n  dup3\n    /* \"#utility.yul\":385:399   */\n  lt\n    /* \"#utility.yul\":365:383   */\n  dup2\n    /* \"#utility.yul\":362:400   */\n  sub\n    /* \"#utility.yul\":359:520   */\n  tag_26\n  jumpi\n    /* \"#utility.yul\":442:452   */\n  0x4e487b71\n    /* \"#utility.yul\":437:440   */\n  0xe0\n    /* \"#utility.yul\":433:453   */\n  shl\n    /* \"#utility.yul\":430:431   */\n  0x00\n    /* \"#utility.yul\":423:454   */\n  mstore\n    /* \"#utility.yul\":477:481   */\n  0x22\n    /* \"#utility.yul\":474:475   */\n  0x04\n    /* \"#utility.yul\":467:482   */\n  mstore\n    /* \"#utility.yul\":505:509   */\n  0x24\n    /* \"#utility.yul\":502:503   */\n  0x00\n    /* \"#utility.yul\":495:510   */\n  revert\n    /* \"#utility.yul\":359:520   */\ntag_26:\n  pop\n    /* \"#utility.yul\":146:526   */\n  swap2\n  swap1\n  pop\n  jump\t// out\n    /* \"#utility.yul\":657:1202   */\ntag_20:\n    /* \"#utility.yul\":759:761   */\n  0x1f\n    /* \"#utility.yul\":754:757   */\n  dup3\n    /* \"#utility.yul\":751:762   */\n  gt\n    /* \"#utility.yul\":748:1196   */\n  iszero\n  tag_29\n  jumpi\n    /* \"#utility.yul\":795:796   */\n  0x00\n    /* \"#utility.yul\":820:825   */\n  dup2\n    /* \"#utility.yul\":816:818   */\n  dup2\n    /* \"#utility.yul\":809:826   */\n  mstore\n    /* \"#utility.yul\":865:869   */\n  0x20\n    /* \"#utility.yul\":861:863   */\n  dup2\n    /* \"#utility.yul\":851:870   */\n  keccak256\n    /* \"#utility.yul\":935:937   */\n  0x1f\n    /* \"#utility.yul\":923:933   */\n  dup6\n    /* \"#utility.yul\":919:938   */\n  add\n    /* \"#utility.yul\":916:917   */\n  0x05\n    /* \"#utility.yul\":912:939   */\n  shr\n    /* \"#utility.yul\":906:910   */\n  dup2\n    /* \"#utility.yul\":902:940   */\n  add\n    /* \"#utility.yul\":971:975   */\n  0x20\n    /* \"#utility.yul\":959:969   */\n  dup7\n    /* \"#utility.yul\":956:976   */\n  lt\n    /* \"#utility.yul\":953:1000   */\n  iszero\n  tag_30\n  jumpi\n  pop\n    /* \"#utility.yul\":994:998   */\n  dup1\n    /* \"#utility.yul\":953:1000   */\ntag_30:\n    /* \"#utility.yul\":1049:1051   */\n  0x1f\n    /* \"#utility.yul\":1044:1047   */\n  dup6\n    /* \"#utility.yul\":1040:1052   */\n  add\n    /* \"#utility.yul\":1037:1038   */\n  0x05\n    /* \"#utility.yul\":1033:1053   */\n  shr\n    /* \"#utility.yul\":1027:1031   */\n  dup3\n    /* \"#utility.yul\":1023:1054   */\n  add\n    /* \"#utility.yul\":1013:1054   */\n  swap2\n  pop\n    /* \"#utility.yul\":1104:1186   */\ntag_31:\n    /* \"#utility.yul\":1122:1124   */\n  dup2\n    /* \"#utility.yul\":1115:1120   */\n  dup2\n    /* \"#utility.yul\":1112:1125   */\n  lt\n    /* \"#utility.yul\":1104:1186   */\n  iszero\n  tag_33\n  jumpi\n    /* \"#utility.yul\":1167:1184   */\n  dup3\n  dup2\n  sstore\n    /* \"#utility.yul\":1148:1149   */\n  0x01\n    /* \"#utility.yul\":1137:1150   */\n  add\n    /* \"#utility.yul\":1104:1186   */\n  jump(tag_31)\ntag_33:\n    /* \"#utility.yul\":1108:1111   */\n  pop\n  pop\n  pop\n    /* \"#utility.yul\":748:1196   */\ntag_29:\n    /* \"#utility.yul\":657:1202   */\n  pop\n  pop\n  pop\n  jump\t// out\n    /* \"#utility.yul\":1378:2730   */\ntag_11:\n    /* \"#utility.yul\":1498:1508   */\n  dup2\n  mload\n  sub(shl(0x40, 0x01), 0x01)\n    /* \"#utility.yul\":1520:1550   */\n  dup2\n  gt\n    /* \"#utility.yul\":1517:1573   */\n  iszero\n  tag_37\n  jumpi\n    /* \"#utility.yul\":1553:1571   */\n  tag_37\n  tag_17\n  jump\t// in\ntag_37:\n    /* \"#utility.yul\":1582:1679   */\n  tag_38\n    /* \"#utility.yul\":1672:1678   */\n  dup2\n    /* \"#utility.yul\":1632:1670   */\n  tag_39\n    /* \"#utility.yul\":1664:1668   */\n  dup5\n    /* \"#utility.yul\":1658:1669   */\n  sload\n    /* \"#utility.yul\":1632:1670   */\n  tag_18\n  jump\t// in\ntag_39:\n    /* \"#utility.yul\":1626:1630   */\n  dup5\n    /* \"#utility.yul\":1582:1679   */\n  tag_20\n  jump\t// in\ntag_38:\n    /* \"#utility.yul\":1734:1738   */\n  0x20\n  dup1\n    /* \"#utility.yul\":1798:1800   */\n  0x1f\n    /* \"#utility.yul\":1787:1801   */\n  dup4\n  gt\n    /* \"#utility.yul\":1815:1816   */\n  0x01\n    /* \"#utility.yul\":1810:2473   */\n  dup2\n  eq\n  tag_41\n  jumpi\n    /* \"#utility.yul\":2517:2518   */\n  0x00\n    /* \"#utility.yul\":2534:2540   */\n  dup5\n    /* \"#utility.yul\":2531:2620   */\n  iszero\n  tag_42\n  jumpi\n  pop\n    /* \"#utility.yul\":2586:2605   */\n  dup6\n  dup4\n  add\n    /* \"#utility.yul\":2580:2606   */\n  mload\n    /* \"#utility.yul\":2531:2620   */\ntag_42:\n  not(0x00)\n    /* \"#utility.yul\":1335:1336   */\n  0x03\n    /* \"#utility.yul\":1331:1342   */\n  dup7\n  swap1\n  shl\n    /* \"#utility.yul\":1327:1351   */\n  shr\n    /* \"#utility.yul\":1323:1352   */\n  not\n    /* \"#utility.yul\":1313:1353   */\n  and\n    /* \"#utility.yul\":1359:1360   */\n  0x01\n    /* \"#utility.yul\":1355:1366   */\n  dup6\n  swap1\n  shl\n    /* \"#utility.yul\":1310:1367   */\n  or\n    /* \"#utility.yul\":2633:2714   */\n  dup6\n  sstore\n    /* \"#utility.yul\":1780:2724   */\n  jump(tag_33)\n    /* \"#utility.yul\":1810:2473   */\ntag_41:\n    /* \"#utility.yul\":604:605   */\n  0x00\n    /* \"#utility.yul\":597:611   */\n  dup6\n  dup2\n  mstore\n    /* \"#utility.yul\":641:645   */\n  0x20\n    /* \"#utility.yul\":628:646   */\n  dup2\n  keccak256\n  not(0x1f)\n    /* \"#utility.yul\":1846:1866   */\n  dup7\n  and\n  swap2\n    /* \"#utility.yul\":1964:2200   */\ntag_45:\n    /* \"#utility.yul\":1978:1985   */\n  dup3\n    /* \"#utility.yul\":1975:1976   */\n  dup2\n    /* \"#utility.yul\":1972:1986   */\n  lt\n    /* \"#utility.yul\":1964:2200   */\n  iszero\n  tag_47\n  jumpi\n    /* \"#utility.yul\":2067:2086   */\n  dup9\n  dup7\n  add\n    /* \"#utility.yul\":2061:2087   */\n  mload\n    /* \"#utility.yul\":2046:2088   */\n  dup3\n  sstore\n    /* \"#utility.yul\":2159:2186   */\n  swap5\n  dup5\n  add\n  swap5\n    /* \"#utility.yul\":2127:2128   */\n  0x01\n    /* \"#utility.yul\":2115:2129   */\n  swap1\n  swap2\n  add\n  swap1\n    /* \"#utility.yul\":1994:2013   */\n  dup5\n  add\n    /* \"#utility.yul\":1964:2200   */\n  jump(tag_45)\ntag_47:\n    /* \"#utility.yul\":1968:1971   */\n  pop\n    /* \"#utility.yul\":2228:2234   */\n  dup6\n    /* \"#utility.yul\":2219:2226   */\n  dup3\n    /* \"#utility.yul\":2216:2235   */\n  lt\n    /* \"#utility.yul\":2213:2414   */\n  iszero\n  tag_48\n  jumpi\n    /* \"#utility.yul\":2289:2308   */\n  dup8\n  dup6\n  add\n    /* \"#utility.yul\":2283:2309   */\n  mload\n  not(0x00)\n    /* \"#utility.yul\":2372:2373   */\n  0x03\n    /* \"#utility.yul\":2368:2382   */\n  dup9\n  swap1\n  shl\n    /* \"#utility.yul\":2384:2387   */\n  0xf8\n    /* \"#utility.yul\":2364:2388   */\n  and\n    /* \"#utility.yul\":2360:2397   */\n  shr\n    /* \"#utility.yul\":2356:2398   */\n  not\n    /* \"#utility.yul\":2341:2399   */\n  and\n    /* \"#utility.yul\":2326:2400   */\n  dup2\n  sstore\n    /* \"#utility.yul\":2213:2414   */\ntag_48:\n  pop\n  pop\n  pop\n  pop\n  pop\n    /* \"#utility.yul\":2460:2461   */\n  0x01\n    /* \"#utility.yul\":2444:2458   */\n  swap1\n  dup2\n  shl\n    /* \"#utility.yul\":2440:2462   */\n  add\n    /* \"#utility.yul\":2427:2463   */\n  swap1\n  sstore\n  pop\n    /* \"#utility.yul\":1378:2730   */\n  jump\t// out\n    /* \"#utility.yul\":2735:2912   */\ntag_22:\n    /* \"contracts/ROACHCOIN.sol\":11322:18748  contract BEP20Token is Context, IBEP20, Ownable {... */\n  dataSize(sub_0)\n  dup1\n  dataOffset(sub_0)\n  0x00\n  codecopy\n  0x00\n  return\nstop\n\nsub_0: assembly {\n        /* \"contracts/ROACHCOIN.sol\":11322:18748  contract BEP20Token is Context, IBEP20, Ownable {... */\n      mstore(0x40, 0x80)\n      callvalue\n      dup1\n      iszero\n      tag_1\n      jumpi\n      0x00\n      dup1\n      revert\n    tag_1:\n      pop\n      jumpi(tag_2, lt(calldatasize, 0x04))\n      shr(0xe0, calldataload(0x00))\n      dup1\n      0x715018a6\n      gt\n      tag_19\n      jumpi\n      dup1\n      0xa457c2d7\n      gt\n      tag_20\n      jumpi\n      dup1\n      0xa457c2d7\n      eq\n      tag_15\n      jumpi\n      dup1\n      0xa9059cbb\n      eq\n      tag_16\n      jumpi\n      dup1\n      0xdd62ed3e\n      eq\n      tag_17\n      jumpi\n      dup1\n      0xf2fde38b\n      eq\n      tag_18\n      jumpi\n      0x00\n      dup1\n      revert\n    tag_20:\n      dup1\n      0x715018a6\n      eq\n      tag_11\n      jumpi\n      dup1\n      0x893d20e8\n      eq\n      tag_12\n      jumpi\n      dup1\n      0x8da5cb5b\n      eq\n      tag_13\n      jumpi\n      dup1\n      0x95d89b41\n      eq\n      tag_14\n      jumpi\n      0x00\n      dup1\n      revert\n    tag_19:\n      dup1\n      0x313ce567\n      gt\n      tag_21\n      jumpi\n      dup1\n      0x313ce567\n      eq\n      tag_7\n      jumpi\n      dup1\n      0x39509351\n      eq\n      tag_8\n      jumpi\n      dup1\n      0x42966c68\n      eq\n      tag_9\n      jumpi\n      dup1\n      0x70a08231\n      eq\n      tag_10\n      jumpi\n      0x00\n      dup1\n      revert\n    tag_21:\n      dup1\n      0x06fdde03\n      eq\n      tag_3\n      jumpi\n      dup1\n      0x095ea7b3\n      eq\n      tag_4\n      jumpi\n      dup1\n      0x18160ddd\n      eq\n      tag_5\n      jumpi\n      dup1\n      0x23b872dd\n      eq\n      tag_6\n      jumpi\n    tag_2:\n      0x00\n      dup1\n      revert\n        /* \"contracts/ROACHCOIN.sol\":12375:12454  function name() external view returns (string memory) {... */\n    tag_3:\n      tag_22\n      tag_23\n      jump\t// in\n    tag_22:\n      mload(0x40)\n      tag_24\n      swap2\n      swap1\n      tag_25\n      jump\t// in\n    tag_24:\n      mload(0x40)\n      dup1\n      swap2\n      sub\n      swap1\n      return\n        /* \"contracts/ROACHCOIN.sol\":13415:13559  function approve(address spender, uint256 amount) external returns (bool) {... */\n    tag_4:\n      tag_26\n      tag_27\n      calldatasize\n      0x04\n      tag_28\n      jump\t// in\n    tag_27:\n      tag_29\n      jump\t// in\n    tag_26:\n      mload(0x40)\n        /* \"#utility.yul\":1169:1183   */\n      swap1\n      iszero\n        /* \"#utility.yul\":1162:1184   */\n      iszero\n        /* \"#utility.yul\":1144:1185   */\n      dup2\n      mstore\n        /* \"#utility.yul\":1132:1134   */\n      0x20\n        /* \"#utility.yul\":1117:1135   */\n      add\n        /* \"contracts/ROACHCOIN.sol\":13415:13559  function approve(address spender, uint256 amount) external returns (bool) {... */\n      tag_24\n        /* \"#utility.yul\":1004:1191   */\n      jump\n        /* \"contracts/ROACHCOIN.sol\":12510:12597  function totalSupply() external view returns (uint256) {... */\n    tag_5:\n        /* \"contracts/ROACHCOIN.sol\":12579:12591  _totalSupply */\n      sload(0x03)\n        /* \"contracts/ROACHCOIN.sol\":12510:12597  function totalSupply() external view returns (uint256) {... */\n    tag_32:\n      mload(0x40)\n        /* \"#utility.yul\":1342:1367   */\n      swap1\n      dup2\n      mstore\n        /* \"#utility.yul\":1330:1332   */\n      0x20\n        /* \"#utility.yul\":1315:1333   */\n      add\n        /* \"contracts/ROACHCOIN.sol\":12510:12597  function totalSupply() external view returns (uint256) {... */\n      tag_24\n        /* \"#utility.yul\":1196:1373   */\n      jump\n        /* \"contracts/ROACHCOIN.sol\":14004:14296  function transferFrom(address sender, address recipient, uint256 amount) external returns (bool) {... */\n    tag_6:\n      tag_26\n      tag_37\n      calldatasize\n      0x04\n      tag_38\n      jump\t// in\n    tag_37:\n      tag_39\n      jump\t// in\n        /* \"contracts/ROACHCOIN.sol\":12103:12182  function decimals() external view returns (uint8) {... */\n    tag_7:\n        /* \"contracts/ROACHCOIN.sol\":12167:12176  _decimals */\n      sload(0x04)\n        /* \"contracts/ROACHCOIN.sol\":12103:12182  function decimals() external view returns (uint8) {... */\n      mload(0x40)\n        /* \"contracts/ROACHCOIN.sol\":12167:12176  _decimals */\n      0xff\n      swap1\n      swap2\n      and\n        /* \"#utility.yul\":1853:1889   */\n      dup2\n      mstore\n        /* \"#utility.yul\":1841:1843   */\n      0x20\n        /* \"#utility.yul\":1826:1844   */\n      add\n        /* \"contracts/ROACHCOIN.sol\":12103:12182  function decimals() external view returns (uint8) {... */\n      tag_24\n        /* \"#utility.yul\":1711:1895   */\n      jump\n        /* \"contracts/ROACHCOIN.sol\":14678:14878  function increaseAllowance(address spender, uint256 addedValue) public returns (bool) {... */\n    tag_8:\n      tag_26\n      tag_46\n      calldatasize\n      0x04\n      tag_28\n      jump\t// in\n    tag_46:\n      tag_47\n      jump\t// in\n        /* \"contracts/ROACHCOIN.sol\":16882:17301  function burn(uint256 amount) external {... */\n    tag_9:\n      tag_49\n      tag_50\n      calldatasize\n      0x04\n      tag_51\n      jump\t// in\n    tag_50:\n      tag_52\n      jump\t// in\n    tag_49:\n      stop\n        /* \"contracts/ROACHCOIN.sol\":12651:12757  function balanceOf(address account) external view returns (uint256) {... */\n    tag_10:\n      tag_32\n      tag_54\n      calldatasize\n      0x04\n      tag_55\n      jump\t// in\n    tag_54:\n      sub(shl(0xa0, 0x01), 0x01)\n        /* \"contracts/ROACHCOIN.sol\":12733:12751  _balances[account] */\n      and\n        /* \"contracts/ROACHCOIN.sol\":12710:12717  uint256 */\n      0x00\n        /* \"contracts/ROACHCOIN.sol\":12733:12751  _balances[account] */\n      swap1\n      dup2\n      mstore\n        /* \"contracts/ROACHCOIN.sol\":12733:12742  _balances */\n      0x01\n        /* \"contracts/ROACHCOIN.sol\":12733:12751  _balances[account] */\n      0x20\n      mstore\n      0x40\n      swap1\n      keccak256\n      sload\n      swap1\n        /* \"contracts/ROACHCOIN.sol\":12651:12757  function balanceOf(address account) external view returns (uint256) {... */\n      jump\n        /* \"contracts/ROACHCOIN.sol\":10624:10754  function renounceOwnership() public onlyOwner {... */\n    tag_11:\n      tag_49\n      tag_59\n      jump\t// in\n        /* \"contracts/ROACHCOIN.sol\":11965:12044  function getOwner() external view returns (address) {... */\n    tag_12:\n        /* \"contracts/ROACHCOIN.sol\":12008:12015  address */\n      0x00\n        /* \"contracts/ROACHCOIN.sol\":10083:10089  _owner */\n      sload\n      sub(shl(0xa0, 0x01), 0x01)\n      and\n        /* \"contracts/ROACHCOIN.sol\":11965:12044  function getOwner() external view returns (address) {... */\n    tag_60:\n      mload(0x40)\n      sub(shl(0xa0, 0x01), 0x01)\n        /* \"#utility.yul\":2440:2472   */\n      swap1\n      swap2\n      and\n        /* \"#utility.yul\":2422:2473   */\n      dup2\n      mstore\n        /* \"#utility.yul\":2410:2412   */\n      0x20\n        /* \"#utility.yul\":2395:2413   */\n      add\n        /* \"contracts/ROACHCOIN.sol\":11965:12044  function getOwner() external view returns (address) {... */\n      tag_24\n        /* \"#utility.yul\":2276:2479   */\n      jump\n        /* \"contracts/ROACHCOIN.sol\":10022:10095  function owner() public view returns (address) {... */\n    tag_13:\n        /* \"contracts/ROACHCOIN.sol\":10060:10067  address */\n      0x00\n        /* \"contracts/ROACHCOIN.sol\":10083:10089  _owner */\n      sload\n      sub(shl(0xa0, 0x01), 0x01)\n      and\n        /* \"contracts/ROACHCOIN.sol\":10022:10095  function owner() public view returns (address) {... */\n      jump(tag_60)\n        /* \"contracts/ROACHCOIN.sol\":12239:12322  function symbol() external view returns (string memory) {... */\n    tag_14:\n      tag_22\n      tag_68\n      jump\t// in\n        /* \"contracts/ROACHCOIN.sol\":15350:15601  function decreaseAllowance(address spender, uint256 subtractedValue) public returns (bool) {... */\n    tag_15:\n      tag_26\n      tag_71\n      calldatasize\n      0x04\n      tag_28\n      jump\t// in\n    tag_71:\n      tag_72\n      jump\t// in\n        /* \"contracts/ROACHCOIN.sol\":12951:13101  function transfer(address recipient, uint256 amount) external returns (bool) {... */\n    tag_16:\n      tag_26\n      tag_75\n      calldatasize\n      0x04\n      tag_28\n      jump\t// in\n    tag_75:\n      tag_76\n      jump\t// in\n        /* \"contracts/ROACHCOIN.sol\":13155:13285  function allowance(address owner, address spender) external view returns (uint256) {... */\n    tag_17:\n      tag_32\n      tag_79\n      calldatasize\n      0x04\n      tag_80\n      jump\t// in\n    tag_79:\n      sub(shl(0xa0, 0x01), 0x01)\n        /* \"contracts/ROACHCOIN.sol\":13252:13270  _allowances[owner] */\n      swap2\n      dup3\n      and\n        /* \"contracts/ROACHCOIN.sol\":13229:13236  uint256 */\n      0x00\n        /* \"contracts/ROACHCOIN.sol\":13252:13270  _allowances[owner] */\n      swap1\n      dup2\n      mstore\n        /* \"contracts/ROACHCOIN.sol\":13252:13263  _allowances */\n      0x02\n        /* \"contracts/ROACHCOIN.sol\":13252:13270  _allowances[owner] */\n      0x20\n      swap1\n      dup2\n      mstore\n      0x40\n      dup1\n      dup4\n      keccak256\n        /* \"contracts/ROACHCOIN.sol\":13252:13279  _allowances[owner][spender] */\n      swap4\n      swap1\n      swap5\n      and\n      dup3\n      mstore\n      swap2\n      swap1\n      swap2\n      mstore\n      keccak256\n      sload\n      swap1\n        /* \"contracts/ROACHCOIN.sol\":13155:13285  function allowance(address owner, address spender) external view returns (uint256) {... */\n      jump\n        /* \"contracts/ROACHCOIN.sol\":10899:11002  function transferOwnership(address newOwner) public onlyOwner {... */\n    tag_18:\n      tag_49\n      tag_84\n      calldatasize\n      0x04\n      tag_55\n      jump\t// in\n    tag_84:\n      tag_85\n      jump\t// in\n        /* \"contracts/ROACHCOIN.sol\":12375:12454  function name() external view returns (string memory) {... */\n    tag_23:\n        /* \"contracts/ROACHCOIN.sol\":12414:12427  string memory */\n      0x60\n        /* \"contracts/ROACHCOIN.sol\":12443:12448  _name */\n      0x06\n        /* \"contracts/ROACHCOIN.sol\":12436:12448  return _name */\n      dup1\n      sload\n      tag_87\n      swap1\n      tag_88\n      jump\t// in\n    tag_87:\n      dup1\n      0x1f\n      add\n      0x20\n      dup1\n      swap2\n      div\n      mul\n      0x20\n      add\n      mload(0x40)\n      swap1\n      dup2\n      add\n      0x40\n      mstore\n      dup1\n      swap3\n      swap2\n      swap1\n      dup2\n      dup2\n      mstore\n      0x20\n      add\n      dup3\n      dup1\n      sload\n      tag_89\n      swap1\n      tag_88\n      jump\t// in\n    tag_89:\n      dup1\n      iszero\n      tag_90\n      jumpi\n      dup1\n      0x1f\n      lt\n      tag_91\n      jumpi\n      0x0100\n      dup1\n      dup4\n      sload\n      div\n      mul\n      dup4\n      mstore\n      swap2\n      0x20\n      add\n      swap2\n      jump(tag_90)\n    tag_91:\n      dup3\n      add\n      swap2\n      swap1\n      0x00\n      mstore\n      keccak256(0x00, 0x20)\n      swap1\n    tag_92:\n      dup2\n      sload\n      dup2\n      mstore\n      swap1\n      0x01\n      add\n      swap1\n      0x20\n      add\n      dup1\n      dup4\n      gt\n      tag_92\n      jumpi\n      dup3\n      swap1\n      sub\n      0x1f\n      and\n      dup3\n      add\n      swap2\n    tag_90:\n      pop\n      pop\n      pop\n      pop\n      pop\n      swap1\n      pop\n        /* \"contracts/ROACHCOIN.sol\":12375:12454  function name() external view returns (string memory) {... */\n      swap1\n      jump\t// out\n        /* \"contracts/ROACHCOIN.sol\":13415:13559  function approve(address spender, uint256 amount) external returns (bool) {... */\n    tag_29:\n        /* \"contracts/ROACHCOIN.sol\":13483:13487  bool */\n      0x00\n        /* \"contracts/ROACHCOIN.sol\":13496:13535  _approve(_msgSender(), spender, amount) */\n      tag_94\n        /* \"contracts/ROACHCOIN.sol\":3803:3813  msg.sender */\n      caller\n        /* \"contracts/ROACHCOIN.sol\":13519:13526  spender */\n      dup5\n        /* \"contracts/ROACHCOIN.sol\":13528:13534  amount */\n      dup5\n        /* \"contracts/ROACHCOIN.sol\":13496:13504  _approve */\n      tag_97\n        /* \"contracts/ROACHCOIN.sol\":13496:13535  _approve(_msgSender(), spender, amount) */\n      jump\t// in\n    tag_94:\n      pop\n        /* \"contracts/ROACHCOIN.sol\":13549:13553  true */\n      0x01\n        /* \"contracts/ROACHCOIN.sol\":13415:13559  function approve(address spender, uint256 amount) external returns (bool) {... */\n    tag_93:\n      swap3\n      swap2\n      pop\n      pop\n      jump\t// out\n        /* \"contracts/ROACHCOIN.sol\":14004:14296  function transferFrom(address sender, address recipient, uint256 amount) external returns (bool) {... */\n    tag_39:\n        /* \"contracts/ROACHCOIN.sol\":14095:14099  bool */\n      0x00\n        /* \"contracts/ROACHCOIN.sol\":14108:14144  _transfer(sender, recipient, amount) */\n      tag_100\n        /* \"contracts/ROACHCOIN.sol\":14118:14124  sender */\n      dup5\n        /* \"contracts/ROACHCOIN.sol\":14126:14135  recipient */\n      dup5\n        /* \"contracts/ROACHCOIN.sol\":14137:14143  amount */\n      dup5\n        /* \"contracts/ROACHCOIN.sol\":14108:14117  _transfer */\n      tag_101\n        /* \"contracts/ROACHCOIN.sol\":14108:14144  _transfer(sender, recipient, amount) */\n      jump\t// in\n    tag_100:\n        /* \"contracts/ROACHCOIN.sol\":14151:14272  _approve(sender, _msgSender(), _allowances[sender][_msgSender()].sub(amount, \"BEP20: transfer amount exceeds allowance\")) */\n      tag_102\n        /* \"contracts/ROACHCOIN.sol\":14160:14166  sender */\n      dup5\n        /* \"contracts/ROACHCOIN.sol\":3803:3813  msg.sender */\n      caller\n        /* \"contracts/ROACHCOIN.sol\":14182:14271  _allowances[sender][_msgSender()].sub(amount, \"BEP20: transfer amount exceeds allowance\") */\n      tag_104\n        /* \"contracts/ROACHCOIN.sol\":14220:14226  amount */\n      dup6\n        /* \"contracts/ROACHCOIN.sol\":14182:14271  _allowances[sender][_msgSender()].sub(amount, \"BEP20: transfer amount exceeds allowance\") */\n      mload(0x40)\n      dup1\n      0x60\n      add\n      0x40\n      mstore\n      dup1\n      0x28\n      dup2\n      mstore\n      0x20\n      add\n      data_4f3506f4ba71c79c3cbd442a3afeb30e9b27af2d84e116a4385b34e267d2287e\n      0x28\n      swap2\n      codecopy\n      sub(shl(0xa0, 0x01), 0x01)\n        /* \"contracts/ROACHCOIN.sol\":14182:14201  _allowances[sender] */\n      dup11\n      and\n      0x00\n      swap1\n      dup2\n      mstore\n        /* \"contracts/ROACHCOIN.sol\":14182:14193  _allowances */\n      0x02\n        /* \"contracts/ROACHCOIN.sol\":14182:14201  _allowances[sender] */\n      0x20\n      swap1\n      dup2\n      mstore\n      0x40\n      dup1\n      dup4\n      keccak256\n        /* \"contracts/ROACHCOIN.sol\":3803:3813  msg.sender */\n      caller\n        /* \"contracts/ROACHCOIN.sol\":14182:14215  _allowances[sender][_msgSender()] */\n      dup5\n      mstore\n      swap1\n      swap2\n      mstore\n      swap1\n      keccak256\n      sload\n      swap2\n      swap1\n        /* \"contracts/ROACHCOIN.sol\":14182:14219  _allowances[sender][_msgSender()].sub */\n      tag_106\n        /* \"contracts/ROACHCOIN.sol\":14182:14271  _allowances[sender][_msgSender()].sub(amount, \"BEP20: transfer amount exceeds allowance\") */\n      jump\t// in\n    tag_104:\n        /* \"contracts/ROACHCOIN.sol\":14151:14159  _approve */\n      tag_97\n        /* \"contracts/ROACHCOIN.sol\":14151:14272  _approve(sender, _msgSender(), _allowances[sender][_msgSender()].sub(amount, \"BEP20: transfer amount exceeds allowance\")) */\n      jump\t// in\n    tag_102:\n      pop\n        /* \"contracts/ROACHCOIN.sol\":14286:14290  true */\n      0x01\n        /* \"contracts/ROACHCOIN.sol\":14004:14296  function transferFrom(address sender, address recipient, uint256 amount) external returns (bool) {... */\n      swap4\n      swap3\n      pop\n      pop\n      pop\n      jump\t// out\n        /* \"contracts/ROACHCOIN.sol\":14678:14878  function increaseAllowance(address spender, uint256 addedValue) public returns (bool) {... */\n    tag_47:\n        /* \"contracts/ROACHCOIN.sol\":3803:3813  msg.sender */\n      caller\n        /* \"contracts/ROACHCOIN.sol\":14758:14762  bool */\n      0x00\n        /* \"contracts/ROACHCOIN.sol\":14803:14828  _allowances[_msgSender()] */\n      dup2\n      dup2\n      mstore\n        /* \"contracts/ROACHCOIN.sol\":14803:14814  _allowances */\n      0x02\n        /* \"contracts/ROACHCOIN.sol\":14803:14828  _allowances[_msgSender()] */\n      0x20\n      swap1\n      dup2\n      mstore\n      0x40\n      dup1\n      dup4\n      keccak256\n      sub(shl(0xa0, 0x01), 0x01)\n        /* \"contracts/ROACHCOIN.sol\":14803:14837  _allowances[_msgSender()][spender] */\n      dup8\n      and\n      dup5\n      mstore\n      swap1\n      swap2\n      mstore\n      dup2\n      keccak256\n      sload\n        /* \"contracts/ROACHCOIN.sol\":14758:14762  bool */\n      swap1\n      swap2\n        /* \"contracts/ROACHCOIN.sol\":14771:14854  _approve(_msgSender(), spender, _allowances[_msgSender()][spender].add(addedValue)) */\n      tag_94\n      swap2\n        /* \"contracts/ROACHCOIN.sol\":14794:14801  spender */\n      dup6\n      swap1\n        /* \"contracts/ROACHCOIN.sol\":14803:14853  _allowances[_msgSender()][spender].add(addedValue) */\n      tag_104\n      swap1\n        /* \"contracts/ROACHCOIN.sol\":14842:14852  addedValue */\n      dup7\n        /* \"contracts/ROACHCOIN.sol\":14803:14841  _allowances[_msgSender()][spender].add */\n      tag_113\n        /* \"contracts/ROACHCOIN.sol\":14803:14853  _allowances[_msgSender()][spender].add(addedValue) */\n      jump\t// in\n        /* \"contracts/ROACHCOIN.sol\":16882:17301  function burn(uint256 amount) external {... */\n    tag_52:\n        /* \"contracts/ROACHCOIN.sol\":3803:3813  msg.sender */\n      caller\n      dup1\n        /* \"contracts/ROACHCOIN.sol\":16964:17030  require(sender != address(0), \"BEP20: burn from the zero address\") */\n      tag_116\n      jumpi\n      mload(0x40)\n      shl(0xe5, 0x461bcd)\n      dup2\n      mstore\n        /* \"#utility.yul\":3336:3338   */\n      0x20\n        /* \"contracts/ROACHCOIN.sol\":16964:17030  require(sender != address(0), \"BEP20: burn from the zero address\") */\n      0x04\n      dup3\n      add\n        /* \"#utility.yul\":3318:3339   */\n      mstore\n        /* \"#utility.yul\":3375:3377   */\n      0x21\n        /* \"#utility.yul\":3355:3373   */\n      0x24\n      dup3\n      add\n        /* \"#utility.yul\":3348:3378   */\n      mstore\n        /* \"#utility.yul\":3414:3448   */\n      0x42455032303a206275726e2066726f6d20746865207a65726f20616464726573\n        /* \"#utility.yul\":3394:3412   */\n      0x44\n      dup3\n      add\n        /* \"#utility.yul\":3387:3449   */\n      mstore\n      shl(0xf8, 0x73)\n        /* \"#utility.yul\":3465:3483   */\n      0x64\n      dup3\n      add\n        /* \"#utility.yul\":3458:3489   */\n      mstore\n        /* \"#utility.yul\":3506:3525   */\n      0x84\n      add\n        /* \"contracts/ROACHCOIN.sol\":16964:17030  require(sender != address(0), \"BEP20: burn from the zero address\") */\n    tag_117:\n      mload(0x40)\n      dup1\n      swap2\n      sub\n      swap1\n      revert\n    tag_116:\n        /* \"contracts/ROACHCOIN.sol\":17054:17055  0 */\n      0x00\n        /* \"contracts/ROACHCOIN.sol\":17045:17051  amount */\n      dup3\n        /* \"contracts/ROACHCOIN.sol\":17045:17055  amount > 0 */\n      gt\n        /* \"contracts/ROACHCOIN.sol\":17037:17092  require(amount > 0, \"Amount must be greater than zero\") */\n      tag_119\n      jumpi\n      mload(0x40)\n      shl(0xe5, 0x461bcd)\n      dup2\n      mstore\n        /* \"#utility.yul\":3738:3740   */\n      0x20\n        /* \"contracts/ROACHCOIN.sol\":17037:17092  require(amount > 0, \"Amount must be greater than zero\") */\n      0x04\n      dup3\n      add\n        /* \"#utility.yul\":3720:3741   */\n      dup2\n      swap1\n      mstore\n        /* \"#utility.yul\":3757:3775   */\n      0x24\n      dup3\n      add\n        /* \"#utility.yul\":3750:3780   */\n      mstore\n        /* \"#utility.yul\":3816:3850   */\n      0x416d6f756e74206d7573742062652067726561746572207468616e207a65726f\n        /* \"#utility.yul\":3796:3814   */\n      0x44\n      dup3\n      add\n        /* \"#utility.yul\":3789:3851   */\n      mstore\n        /* \"#utility.yul\":3868:3886   */\n      0x64\n      add\n        /* \"contracts/ROACHCOIN.sol\":17037:17092  require(amount > 0, \"Amount must be greater than zero\") */\n      tag_117\n        /* \"#utility.yul\":3536:3892   */\n      jump\n        /* \"contracts/ROACHCOIN.sol\":17037:17092  require(amount > 0, \"Amount must be greater than zero\") */\n    tag_119:\n      sub(shl(0xa0, 0x01), 0x01)\n        /* \"contracts/ROACHCOIN.sol\":17107:17124  _balances[sender] */\n      dup2\n      and\n      0x00\n      swap1\n      dup2\n      mstore\n        /* \"contracts/ROACHCOIN.sol\":17107:17116  _balances */\n      0x01\n        /* \"contracts/ROACHCOIN.sol\":17107:17124  _balances[sender] */\n      0x20\n      mstore\n      0x40\n      swap1\n      keccak256\n      sload\n        /* \"contracts/ROACHCOIN.sol\":17107:17134  _balances[sender] >= amount */\n      dup3\n      gt\n      iszero\n        /* \"contracts/ROACHCOIN.sol\":17099:17159  require(_balances[sender] >= amount, \"Insufficient balance\") */\n      tag_122\n      jumpi\n      mload(0x40)\n      shl(0xe5, 0x461bcd)\n      dup2\n      mstore\n        /* \"#utility.yul\":4099:4101   */\n      0x20\n        /* \"contracts/ROACHCOIN.sol\":17099:17159  require(_balances[sender] >= amount, \"Insufficient balance\") */\n      0x04\n      dup3\n      add\n        /* \"#utility.yul\":4081:4102   */\n      mstore\n        /* \"#utility.yul\":4138:4140   */\n      0x14\n        /* \"#utility.yul\":4118:4136   */\n      0x24\n      dup3\n      add\n        /* \"#utility.yul\":4111:4141   */\n      mstore\n      shl(0x60, 0x496e73756666696369656e742062616c616e6365)\n        /* \"#utility.yul\":4157:4175   */\n      0x44\n      dup3\n      add\n        /* \"#utility.yul\":4150:4200   */\n      mstore\n        /* \"#utility.yul\":4217:4235   */\n      0x64\n      add\n        /* \"contracts/ROACHCOIN.sol\":17099:17159  require(_balances[sender] >= amount, \"Insufficient balance\") */\n      tag_117\n        /* \"#utility.yul\":3897:4241   */\n      jump\n        /* \"contracts/ROACHCOIN.sol\":17099:17159  require(_balances[sender] >= amount, \"Insufficient balance\") */\n    tag_122:\n      sub(shl(0xa0, 0x01), 0x01)\n        /* \"contracts/ROACHCOIN.sol\":17188:17205  _balances[sender] */\n      dup2\n      and\n      0x00\n      swap1\n      dup2\n      mstore\n        /* \"contracts/ROACHCOIN.sol\":17188:17197  _balances */\n      0x01\n        /* \"contracts/ROACHCOIN.sol\":17188:17205  _balances[sender] */\n      0x20\n      mstore\n      0x40\n      swap1\n      keccak256\n      sload\n        /* \"contracts/ROACHCOIN.sol\":17188:17217  _balances[sender].sub(amount) */\n      tag_125\n      swap1\n        /* \"contracts/ROACHCOIN.sol\":17210:17216  amount */\n      dup4\n        /* \"contracts/ROACHCOIN.sol\":17188:17209  _balances[sender].sub */\n      tag_126\n        /* \"contracts/ROACHCOIN.sol\":17188:17217  _balances[sender].sub(amount) */\n      jump\t// in\n    tag_125:\n      sub(shl(0xa0, 0x01), 0x01)\n        /* \"contracts/ROACHCOIN.sol\":17168:17185  _balances[sender] */\n      dup3\n      and\n      0x00\n      swap1\n      dup2\n      mstore\n        /* \"contracts/ROACHCOIN.sol\":17168:17177  _balances */\n      0x01\n        /* \"contracts/ROACHCOIN.sol\":17168:17185  _balances[sender] */\n      0x20\n      mstore\n      0x40\n      swap1\n      keccak256\n        /* \"contracts/ROACHCOIN.sol\":17168:17217  _balances[sender] = _balances[sender].sub(amount) */\n      sstore\n        /* \"contracts/ROACHCOIN.sol\":17239:17251  _totalSupply */\n      sload(0x03)\n        /* \"contracts/ROACHCOIN.sol\":17239:17263  _totalSupply.sub(amount) */\n      tag_127\n      swap1\n        /* \"contracts/ROACHCOIN.sol\":17256:17262  amount */\n      dup4\n        /* \"contracts/ROACHCOIN.sol\":17239:17255  _totalSupply.sub */\n      tag_126\n        /* \"contracts/ROACHCOIN.sol\":17239:17263  _totalSupply.sub(amount) */\n      jump\t// in\n    tag_127:\n        /* \"contracts/ROACHCOIN.sol\":17224:17236  _totalSupply */\n      0x03\n        /* \"contracts/ROACHCOIN.sol\":17224:17263  _totalSupply = _totalSupply.sub(amount) */\n      sstore\n        /* \"contracts/ROACHCOIN.sol\":17277:17297  Burn(sender, amount) */\n      mload(0x40)\n        /* \"#utility.yul\":1342:1367   */\n      dup3\n      dup2\n      mstore\n      sub(shl(0xa0, 0x01), 0x01)\n        /* \"contracts/ROACHCOIN.sol\":17277:17297  Burn(sender, amount) */\n      dup3\n      and\n      swap1\n      0xcc16f5dbb4873280815c1ee09dbd06736cffcc184412cf7a71a0fdb75d397ca5\n      swap1\n        /* \"#utility.yul\":1330:1332   */\n      0x20\n        /* \"#utility.yul\":1315:1333   */\n      add\n        /* \"contracts/ROACHCOIN.sol\":17277:17297  Burn(sender, amount) */\n      mload(0x40)\n      dup1\n      swap2\n      sub\n      swap1\n      log2\n        /* \"contracts/ROACHCOIN.sol\":16921:17301  {... */\n      pop\n        /* \"contracts/ROACHCOIN.sol\":16882:17301  function burn(uint256 amount) external {... */\n      pop\n      jump\t// out\n        /* \"contracts/ROACHCOIN.sol\":10624:10754  function renounceOwnership() public onlyOwner {... */\n    tag_59:\n        /* \"contracts/ROACHCOIN.sol\":10216:10222  _owner */\n      and(sub(shl(0xa0, 0x01), 0x01), sload(0x00))\n        /* \"contracts/ROACHCOIN.sol\":3803:3813  msg.sender */\n      caller\n        /* \"contracts/ROACHCOIN.sol\":10216:10238  _owner == _msgSender() */\n      eq\n        /* \"contracts/ROACHCOIN.sol\":10208:10275  require(_owner == _msgSender(), \"Ownable: caller is not the owner\") */\n      tag_132\n      jumpi\n      mload(0x40)\n      shl(0xe5, 0x461bcd)\n      dup2\n      mstore\n        /* \"#utility.yul\":4448:4450   */\n      0x20\n        /* \"contracts/ROACHCOIN.sol\":10208:10275  require(_owner == _msgSender(), \"Ownable: caller is not the owner\") */\n      0x04\n      dup3\n      add\n        /* \"#utility.yul\":4430:4451   */\n      dup2\n      swap1\n      mstore\n        /* \"#utility.yul\":4467:4485   */\n      0x24\n      dup3\n      add\n        /* \"#utility.yul\":4460:4490   */\n      mstore\n        /* \"#utility.yul\":4526:4560   */\n      0x4f776e61626c653a2063616c6c6572206973206e6f7420746865206f776e6572\n        /* \"#utility.yul\":4506:4524   */\n      0x44\n      dup3\n      add\n        /* \"#utility.yul\":4499:4561   */\n      mstore\n        /* \"#utility.yul\":4578:4596   */\n      0x64\n      add\n        /* \"contracts/ROACHCOIN.sol\":10208:10275  require(_owner == _msgSender(), \"Ownable: caller is not the owner\") */\n      tag_117\n        /* \"#utility.yul\":4246:4602   */\n      jump\n        /* \"contracts/ROACHCOIN.sol\":10208:10275  require(_owner == _msgSender(), \"Ownable: caller is not the owner\") */\n    tag_132:\n        /* \"contracts/ROACHCOIN.sol\":10719:10720  0 */\n      0x00\n        /* \"contracts/ROACHCOIN.sol\":10703:10709  _owner */\n      dup1\n      sload\n        /* \"contracts/ROACHCOIN.sol\":10682:10722  OwnershipTransferred(_owner, address(0)) */\n      mload(0x40)\n      sub(shl(0xa0, 0x01), 0x01)\n        /* \"contracts/ROACHCOIN.sol\":10703:10709  _owner */\n      swap1\n      swap2\n      and\n      swap1\n        /* \"contracts/ROACHCOIN.sol\":10682:10722  OwnershipTransferred(_owner, address(0)) */\n      0x8be0079c531659141344cd1fd0a4f28419497f9722a3daafe3b4186f6b6457e0\n      swap1\n        /* \"contracts/ROACHCOIN.sol\":10719:10720  0 */\n      dup4\n      swap1\n        /* \"contracts/ROACHCOIN.sol\":10682:10722  OwnershipTransferred(_owner, address(0)) */\n      log3\n        /* \"contracts/ROACHCOIN.sol\":10746:10747  0 */\n      0x00\n        /* \"contracts/ROACHCOIN.sol\":10729:10748  _owner = address(0) */\n      dup1\n      sload\n      not(sub(shl(0xa0, 0x01), 0x01))\n      and\n      swap1\n      sstore\n        /* \"contracts/ROACHCOIN.sol\":10624:10754  function renounceOwnership() public onlyOwner {... */\n      jump\t// out\n        /* \"contracts/ROACHCOIN.sol\":12239:12322  function symbol() external view returns (string memory) {... */\n    tag_68:\n        /* \"contracts/ROACHCOIN.sol\":12280:12293  string memory */\n      0x60\n        /* \"contracts/ROACHCOIN.sol\":12309:12316  _symbol */\n      0x05\n        /* \"contracts/ROACHCOIN.sol\":12302:12316  return _symbol */\n      dup1\n      sload\n      tag_87\n      swap1\n      tag_88\n      jump\t// in\n        /* \"contracts/ROACHCOIN.sol\":15350:15601  function decreaseAllowance(address spender, uint256 subtractedValue) public returns (bool) {... */\n    tag_72:\n        /* \"contracts/ROACHCOIN.sol\":15435:15439  bool */\n      0x00\n        /* \"contracts/ROACHCOIN.sol\":15448:15577  _approve(_msgSender(), spender, _allowances[_msgSender()][spender].sub(subtractedValue, \"BEP20: decreased allowance below zero\")) */\n      tag_94\n        /* \"contracts/ROACHCOIN.sol\":3803:3813  msg.sender */\n      caller\n        /* \"contracts/ROACHCOIN.sol\":15471:15478  spender */\n      dup5\n        /* \"contracts/ROACHCOIN.sol\":15480:15576  _allowances[_msgSender()][spender].sub(subtractedValue, \"BEP20: decreased allowance below zero\") */\n      tag_104\n        /* \"contracts/ROACHCOIN.sol\":15519:15534  subtractedValue */\n      dup6\n        /* \"contracts/ROACHCOIN.sol\":15480:15576  _allowances[_msgSender()][spender].sub(subtractedValue, \"BEP20: decreased allowance below zero\") */\n      mload(0x40)\n      dup1\n      0x60\n      add\n      0x40\n      mstore\n      dup1\n      0x25\n      dup2\n      mstore\n      0x20\n      add\n      data_b7060b3538dcd3ddc8a941c91636a8115a1aa46914747fd9809d543bbb46cd22\n      0x25\n      swap2\n      codecopy\n        /* \"contracts/ROACHCOIN.sol\":3803:3813  msg.sender */\n      caller\n        /* \"contracts/ROACHCOIN.sol\":15480:15505  _allowances[_msgSender()] */\n      0x00\n      swap1\n      dup2\n      mstore\n        /* \"contracts/ROACHCOIN.sol\":15480:15491  _allowances */\n      0x02\n        /* \"contracts/ROACHCOIN.sol\":15480:15505  _allowances[_msgSender()] */\n      0x20\n      swap1\n      dup2\n      mstore\n      0x40\n      dup1\n      dup4\n      keccak256\n      sub(shl(0xa0, 0x01), 0x01)\n        /* \"contracts/ROACHCOIN.sol\":15480:15514  _allowances[_msgSender()][spender] */\n      dup14\n      and\n      dup5\n      mstore\n      swap1\n      swap2\n      mstore\n      swap1\n      keccak256\n      sload\n      swap2\n      swap1\n        /* \"contracts/ROACHCOIN.sol\":15480:15518  _allowances[_msgSender()][spender].sub */\n      tag_106\n        /* \"contracts/ROACHCOIN.sol\":15480:15576  _allowances[_msgSender()][spender].sub(subtractedValue, \"BEP20: decreased allowance below zero\") */\n      jump\t// in\n        /* \"contracts/ROACHCOIN.sol\":12951:13101  function transfer(address recipient, uint256 amount) external returns (bool) {... */\n    tag_76:\n        /* \"contracts/ROACHCOIN.sol\":13022:13026  bool */\n      0x00\n        /* \"contracts/ROACHCOIN.sol\":13035:13077  _transfer(_msgSender(), recipient, amount) */\n      tag_94\n        /* \"contracts/ROACHCOIN.sol\":3803:3813  msg.sender */\n      caller\n        /* \"contracts/ROACHCOIN.sol\":13059:13068  recipient */\n      dup5\n        /* \"contracts/ROACHCOIN.sol\":13070:13076  amount */\n      dup5\n        /* \"contracts/ROACHCOIN.sol\":13035:13044  _transfer */\n      tag_101\n        /* \"contracts/ROACHCOIN.sol\":13035:13077  _transfer(_msgSender(), recipient, amount) */\n      jump\t// in\n        /* \"contracts/ROACHCOIN.sol\":10899:11002  function transferOwnership(address newOwner) public onlyOwner {... */\n    tag_85:\n        /* \"contracts/ROACHCOIN.sol\":10216:10222  _owner */\n      and(sub(shl(0xa0, 0x01), 0x01), sload(0x00))\n        /* \"contracts/ROACHCOIN.sol\":3803:3813  msg.sender */\n      caller\n        /* \"contracts/ROACHCOIN.sol\":10216:10238  _owner == _msgSender() */\n      eq\n        /* \"contracts/ROACHCOIN.sol\":10208:10275  require(_owner == _msgSender(), \"Ownable: caller is not the owner\") */\n      tag_156\n      jumpi\n      mload(0x40)\n      shl(0xe5, 0x461bcd)\n      dup2\n      mstore\n        /* \"#utility.yul\":4448:4450   */\n      0x20\n        /* \"contracts/ROACHCOIN.sol\":10208:10275  require(_owner == _msgSender(), \"Ownable: caller is not the owner\") */\n      0x04\n      dup3\n      add\n        /* \"#utility.yul\":4430:4451   */\n      dup2\n      swap1\n      mstore\n        /* \"#utility.yul\":4467:4485   */\n      0x24\n      dup3\n      add\n        /* \"#utility.yul\":4460:4490   */\n      mstore\n        /* \"#utility.yul\":4526:4560   */\n      0x4f776e61626c653a2063616c6c6572206973206e6f7420746865206f776e6572\n        /* \"#utility.yul\":4506:4524   */\n      0x44\n      dup3\n      add\n        /* \"#utility.yul\":4499:4561   */\n      mstore\n        /* \"#utility.yul\":4578:4596   */\n      0x64\n      add\n        /* \"contracts/ROACHCOIN.sol\":10208:10275  require(_owner == _msgSender(), \"Ownable: caller is not the owner\") */\n      tag_117\n        /* \"#utility.yul\":4246:4602   */\n      jump\n        /* \"contracts/ROACHCOIN.sol\":10208:10275  require(_owner == _msgSender(), \"Ownable: caller is not the owner\") */\n    tag_156:\n        /* \"contracts/ROACHCOIN.sol\":10968:10996  _transferOwnership(newOwner) */\n      tag_159\n        /* \"contracts/ROACHCOIN.sol\":10987:10995  newOwner */\n      dup2\n        /* \"contracts/ROACHCOIN.sol\":10968:10986  _transferOwnership */\n      tag_160\n        /* \"contracts/ROACHCOIN.sol\":10968:10996  _transferOwnership(newOwner) */\n      jump\t// in\n    tag_159:\n        /* \"contracts/ROACHCOIN.sol\":10899:11002  function transferOwnership(address newOwner) public onlyOwner {... */\n      pop\n      jump\t// out\n        /* \"contracts/ROACHCOIN.sol\":18029:18349  function _approve(address owner, address spender, uint256 amount) internal {... */\n    tag_97:\n      sub(shl(0xa0, 0x01), 0x01)\n        /* \"contracts/ROACHCOIN.sol\":18119:18138  owner != address(0) */\n      dup4\n      and\n        /* \"contracts/ROACHCOIN.sol\":18111:18179  require(owner != address(0), \"BEP20: approve from the zero address\") */\n      tag_163\n      jumpi\n      mload(0x40)\n      shl(0xe5, 0x461bcd)\n      dup2\n      mstore\n        /* \"#utility.yul\":4809:4811   */\n      0x20\n        /* \"contracts/ROACHCOIN.sol\":18111:18179  require(owner != address(0), \"BEP20: approve from the zero address\") */\n      0x04\n      dup3\n      add\n        /* \"#utility.yul\":4791:4812   */\n      mstore\n        /* \"#utility.yul\":4848:4850   */\n      0x24\n        /* \"#utility.yul\":4828:4846   */\n      dup1\n      dup3\n      add\n        /* \"#utility.yul\":4821:4851   */\n      mstore\n        /* \"#utility.yul\":4887:4921   */\n      0x42455032303a20617070726f76652066726f6d20746865207a65726f20616464\n        /* \"#utility.yul\":4867:4885   */\n      0x44\n      dup3\n      add\n        /* \"#utility.yul\":4860:4922   */\n      mstore\n      shl(0xe0, 0x72657373)\n        /* \"#utility.yul\":4938:4956   */\n      0x64\n      dup3\n      add\n        /* \"#utility.yul\":4931:4965   */\n      mstore\n        /* \"#utility.yul\":4982:5001   */\n      0x84\n      add\n        /* \"contracts/ROACHCOIN.sol\":18111:18179  require(owner != address(0), \"BEP20: approve from the zero address\") */\n      tag_117\n        /* \"#utility.yul\":4607:5007   */\n      jump\n        /* \"contracts/ROACHCOIN.sol\":18111:18179  require(owner != address(0), \"BEP20: approve from the zero address\") */\n    tag_163:\n      sub(shl(0xa0, 0x01), 0x01)\n        /* \"contracts/ROACHCOIN.sol\":18194:18215  spender != address(0) */\n      dup3\n      and\n        /* \"contracts/ROACHCOIN.sol\":18186:18254  require(spender != address(0), \"BEP20: approve to the zero address\") */\n      tag_166\n      jumpi\n      mload(0x40)\n      shl(0xe5, 0x461bcd)\n      dup2\n      mstore\n        /* \"#utility.yul\":5214:5216   */\n      0x20\n        /* \"contracts/ROACHCOIN.sol\":18186:18254  require(spender != address(0), \"BEP20: approve to the zero address\") */\n      0x04\n      dup3\n      add\n        /* \"#utility.yul\":5196:5217   */\n      mstore\n        /* \"#utility.yul\":5253:5255   */\n      0x22\n        /* \"#utility.yul\":5233:5251   */\n      0x24\n      dup3\n      add\n        /* \"#utility.yul\":5226:5256   */\n      mstore\n        /* \"#utility.yul\":5292:5326   */\n      0x42455032303a20617070726f766520746f20746865207a65726f206164647265\n        /* \"#utility.yul\":5272:5290   */\n      0x44\n      dup3\n      add\n        /* \"#utility.yul\":5265:5327   */\n      mstore\n      shl(0xf0, 0x7373)\n        /* \"#utility.yul\":5343:5361   */\n      0x64\n      dup3\n      add\n        /* \"#utility.yul\":5336:5368   */\n      mstore\n        /* \"#utility.yul\":5385:5404   */\n      0x84\n      add\n        /* \"contracts/ROACHCOIN.sol\":18186:18254  require(spender != address(0), \"BEP20: approve to the zero address\") */\n      tag_117\n        /* \"#utility.yul\":5012:5410   */\n      jump\n        /* \"contracts/ROACHCOIN.sol\":18186:18254  require(spender != address(0), \"BEP20: approve to the zero address\") */\n    tag_166:\n      sub(shl(0xa0, 0x01), 0x01)\n        /* \"contracts/ROACHCOIN.sol\":18263:18281  _allowances[owner] */\n      dup4\n      dup2\n      and\n      0x00\n      dup2\n      dup2\n      mstore\n        /* \"contracts/ROACHCOIN.sol\":18263:18274  _allowances */\n      0x02\n        /* \"contracts/ROACHCOIN.sol\":18263:18281  _allowances[owner] */\n      0x20\n      swap1\n      dup2\n      mstore\n      0x40\n      dup1\n      dup4\n      keccak256\n        /* \"contracts/ROACHCOIN.sol\":18263:18290  _allowances[owner][spender] */\n      swap5\n      dup8\n      and\n      dup1\n      dup5\n      mstore\n      swap5\n      dup3\n      mstore\n      swap2\n      dup3\n      swap1\n      keccak256\n        /* \"contracts/ROACHCOIN.sol\":18263:18299  _allowances[owner][spender] = amount */\n      dup6\n      swap1\n      sstore\n        /* \"contracts/ROACHCOIN.sol\":18311:18343  Approval(owner, spender, amount) */\n      swap1\n      mload\n        /* \"#utility.yul\":1342:1367   */\n      dup5\n      dup2\n      mstore\n        /* \"contracts/ROACHCOIN.sol\":18311:18343  Approval(owner, spender, amount) */\n      0x8c5be1e5ebec7d5bd14f71427d1e84f3dd0314c0f7b2291e5b200ac8c7c3b925\n      swap2\n        /* \"#utility.yul\":1315:1333   */\n      add\n        /* \"contracts/ROACHCOIN.sol\":18311:18343  Approval(owner, spender, amount) */\n    tag_169:\n      mload(0x40)\n      dup1\n      swap2\n      sub\n      swap1\n      log3\n        /* \"contracts/ROACHCOIN.sol\":18029:18349  function _approve(address owner, address spender, uint256 amount) internal {... */\n      pop\n      pop\n      pop\n      jump\t// out\n        /* \"contracts/ROACHCOIN.sol\":16067:16516  function _transfer(address sender, address recipient, uint256 amount) internal {... */\n    tag_101:\n      sub(shl(0xa0, 0x01), 0x01)\n        /* \"contracts/ROACHCOIN.sol\":16161:16181  sender != address(0) */\n      dup4\n      and\n        /* \"contracts/ROACHCOIN.sol\":16153:16223  require(sender != address(0), \"BEP20: transfer from the zero address\") */\n      tag_171\n      jumpi\n      mload(0x40)\n      shl(0xe5, 0x461bcd)\n      dup2\n      mstore\n        /* \"#utility.yul\":5617:5619   */\n      0x20\n        /* \"contracts/ROACHCOIN.sol\":16153:16223  require(sender != address(0), \"BEP20: transfer from the zero address\") */\n      0x04\n      dup3\n      add\n        /* \"#utility.yul\":5599:5620   */\n      mstore\n        /* \"#utility.yul\":5656:5658   */\n      0x25\n        /* \"#utility.yul\":5636:5654   */\n      0x24\n      dup3\n      add\n        /* \"#utility.yul\":5629:5659   */\n      mstore\n        /* \"#utility.yul\":5695:5729   */\n      0x42455032303a207472616e736665722066726f6d20746865207a65726f206164\n        /* \"#utility.yul\":5675:5693   */\n      0x44\n      dup3\n      add\n        /* \"#utility.yul\":5668:5730   */\n      mstore\n      shl(0xd8, 0x6472657373)\n        /* \"#utility.yul\":5746:5764   */\n      0x64\n      dup3\n      add\n        /* \"#utility.yul\":5739:5774   */\n      mstore\n        /* \"#utility.yul\":5791:5810   */\n      0x84\n      add\n        /* \"contracts/ROACHCOIN.sol\":16153:16223  require(sender != address(0), \"BEP20: transfer from the zero address\") */\n      tag_117\n        /* \"#utility.yul\":5415:5816   */\n      jump\n        /* \"contracts/ROACHCOIN.sol\":16153:16223  require(sender != address(0), \"BEP20: transfer from the zero address\") */\n    tag_171:\n      sub(shl(0xa0, 0x01), 0x01)\n        /* \"contracts/ROACHCOIN.sol\":16238:16261  recipient != address(0) */\n      dup3\n      and\n        /* \"contracts/ROACHCOIN.sol\":16230:16301  require(recipient != address(0), \"BEP20: transfer to the zero address\") */\n      tag_174\n      jumpi\n      mload(0x40)\n      shl(0xe5, 0x461bcd)\n      dup2\n      mstore\n        /* \"#utility.yul\":6023:6025   */\n      0x20\n        /* \"contracts/ROACHCOIN.sol\":16230:16301  require(recipient != address(0), \"BEP20: transfer to the zero address\") */\n      0x04\n      dup3\n      add\n        /* \"#utility.yul\":6005:6026   */\n      mstore\n        /* \"#utility.yul\":6062:6064   */\n      0x23\n        /* \"#utility.yul\":6042:6060   */\n      0x24\n      dup3\n      add\n        /* \"#utility.yul\":6035:6065   */\n      mstore\n        /* \"#utility.yul\":6101:6135   */\n      0x42455032303a207472616e7366657220746f20746865207a65726f2061646472\n        /* \"#utility.yul\":6081:6099   */\n      0x44\n      dup3\n      add\n        /* \"#utility.yul\":6074:6136   */\n      mstore\n      shl(0xe8, 0x657373)\n        /* \"#utility.yul\":6152:6170   */\n      0x64\n      dup3\n      add\n        /* \"#utility.yul\":6145:6178   */\n      mstore\n        /* \"#utility.yul\":6195:6214   */\n      0x84\n      add\n        /* \"contracts/ROACHCOIN.sol\":16230:16301  require(recipient != address(0), \"BEP20: transfer to the zero address\") */\n      tag_117\n        /* \"#utility.yul\":5821:6220   */\n      jump\n        /* \"contracts/ROACHCOIN.sol\":16230:16301  require(recipient != address(0), \"BEP20: transfer to the zero address\") */\n    tag_174:\n        /* \"contracts/ROACHCOIN.sol\":16330:16401  _balances[sender].sub(amount, \"BEP20: transfer amount exceeds balance\") */\n      tag_177\n        /* \"contracts/ROACHCOIN.sol\":16352:16358  amount */\n      dup2\n        /* \"contracts/ROACHCOIN.sol\":16330:16401  _balances[sender].sub(amount, \"BEP20: transfer amount exceeds balance\") */\n      mload(0x40)\n      dup1\n      0x60\n      add\n      0x40\n      mstore\n      dup1\n      0x26\n      dup2\n      mstore\n      0x20\n      add\n      data_a91efd7a65ef5b4ae4d6568d674798b78a5a89184dd296c100513251c22d3e73\n      0x26\n      swap2\n      codecopy\n      sub(shl(0xa0, 0x01), 0x01)\n        /* \"contracts/ROACHCOIN.sol\":16330:16347  _balances[sender] */\n      dup7\n      and\n      0x00\n      swap1\n      dup2\n      mstore\n        /* \"contracts/ROACHCOIN.sol\":16330:16339  _balances */\n      0x01\n        /* \"contracts/ROACHCOIN.sol\":16330:16347  _balances[sender] */\n      0x20\n      mstore\n      0x40\n      swap1\n      keccak256\n      sload\n      swap2\n        /* \"contracts/ROACHCOIN.sol\":16330:16401  _balances[sender].sub(amount, \"BEP20: transfer amount exceeds balance\") */\n      swap1\n        /* \"contracts/ROACHCOIN.sol\":16330:16351  _balances[sender].sub */\n      tag_106\n        /* \"contracts/ROACHCOIN.sol\":16330:16401  _balances[sender].sub(amount, \"BEP20: transfer amount exceeds balance\") */\n      jump\t// in\n    tag_177:\n      sub(shl(0xa0, 0x01), 0x01)\n        /* \"contracts/ROACHCOIN.sol\":16310:16327  _balances[sender] */\n      dup1\n      dup6\n      and\n      0x00\n      swap1\n      dup2\n      mstore\n        /* \"contracts/ROACHCOIN.sol\":16310:16319  _balances */\n      0x01\n        /* \"contracts/ROACHCOIN.sol\":16310:16327  _balances[sender] */\n      0x20\n      mstore\n      0x40\n      dup1\n      dup3\n      keccak256\n        /* \"contracts/ROACHCOIN.sol\":16310:16401  _balances[sender] = _balances[sender].sub(amount, \"BEP20: transfer amount exceeds balance\") */\n      swap4\n      swap1\n      swap4\n      sstore\n        /* \"contracts/ROACHCOIN.sol\":16431:16451  _balances[recipient] */\n      swap1\n      dup5\n      and\n      dup2\n      mstore\n      keccak256\n      sload\n        /* \"contracts/ROACHCOIN.sol\":16431:16463  _balances[recipient].add(amount) */\n      tag_178\n      swap1\n        /* \"contracts/ROACHCOIN.sol\":16456:16462  amount */\n      dup3\n        /* \"contracts/ROACHCOIN.sol\":16431:16455  _balances[recipient].add */\n      tag_113\n        /* \"contracts/ROACHCOIN.sol\":16431:16463  _balances[recipient].add(amount) */\n      jump\t// in\n    tag_178:\n      sub(shl(0xa0, 0x01), 0x01)\n        /* \"contracts/ROACHCOIN.sol\":16408:16428  _balances[recipient] */\n      dup1\n      dup5\n      and\n      0x00\n      dup2\n      dup2\n      mstore\n        /* \"contracts/ROACHCOIN.sol\":16408:16417  _balances */\n      0x01\n        /* \"contracts/ROACHCOIN.sol\":16408:16428  _balances[recipient] */\n      0x20\n      mstore\n      0x40\n      swap1\n      dup2\n      swap1\n      keccak256\n        /* \"contracts/ROACHCOIN.sol\":16408:16463  _balances[recipient] = _balances[recipient].add(amount) */\n      swap4\n      swap1\n      swap4\n      sstore\n        /* \"contracts/ROACHCOIN.sol\":16475:16510  Transfer(sender, recipient, amount) */\n      swap2\n      mload\n      swap1\n      dup6\n      and\n      swap1\n      0xddf252ad1be2c89b69c2b068fc378daa952ba7f163c4a11628f55a4df523b3ef\n      swap1\n      tag_169\n      swap1\n        /* \"contracts/ROACHCOIN.sol\":16503:16509  amount */\n      dup6\n        /* \"#utility.yul\":1342:1367   */\n      dup2\n      mstore\n        /* \"#utility.yul\":1330:1332   */\n      0x20\n        /* \"#utility.yul\":1315:1333   */\n      add\n      swap1\n        /* \"#utility.yul\":1196:1373   */\n      jump\n        /* \"contracts/ROACHCOIN.sol\":5686:5864  function sub(uint256 a, uint256 b, string memory errorMessage) internal pure returns (uint256) {... */\n    tag_106:\n        /* \"contracts/ROACHCOIN.sol\":5772:5779  uint256 */\n      0x00\n        /* \"contracts/ROACHCOIN.sol\":5804:5816  errorMessage */\n      dup2\n        /* \"contracts/ROACHCOIN.sol\":5796:5802  b <= a */\n      dup5\n      dup5\n      gt\n      iszero\n        /* \"contracts/ROACHCOIN.sol\":5788:5817  require(b <= a, errorMessage) */\n      tag_181\n      jumpi\n      mload(0x40)\n      shl(0xe5, 0x461bcd)\n      dup2\n      mstore\n      0x04\n      add\n      tag_117\n      swap2\n      swap1\n      tag_25\n      jump\t// in\n    tag_181:\n      pop\n        /* \"contracts/ROACHCOIN.sol\":5824:5833  uint256 c */\n      0x00\n        /* \"contracts/ROACHCOIN.sol\":5836:5841  a - b */\n      tag_183\n        /* \"contracts/ROACHCOIN.sol\":5840:5841  b */\n      dup5\n        /* \"contracts/ROACHCOIN.sol\":5836:5837  a */\n      dup7\n        /* \"contracts/ROACHCOIN.sol\":5836:5841  a - b */\n      tag_184\n      jump\t// in\n    tag_183:\n        /* \"contracts/ROACHCOIN.sol\":5824:5841  uint256 c = a - b */\n      swap6\n        /* \"contracts/ROACHCOIN.sol\":5686:5864  function sub(uint256 a, uint256 b, string memory errorMessage) internal pure returns (uint256) {... */\n      swap5\n      pop\n      pop\n      pop\n      pop\n      pop\n      jump\t// out\n        /* \"contracts/ROACHCOIN.sol\":4859:5026  function add(uint256 a, uint256 b) internal pure returns (uint256) {... */\n    tag_113:\n        /* \"contracts/ROACHCOIN.sol\":4917:4924  uint256 */\n      0x00\n      dup1\n        /* \"contracts/ROACHCOIN.sol\":4945:4950  a + b */\n      tag_186\n        /* \"contracts/ROACHCOIN.sol\":4949:4950  b */\n      dup4\n        /* \"contracts/ROACHCOIN.sol\":4945:4946  a */\n      dup6\n        /* \"contracts/ROACHCOIN.sol\":4945:4950  a + b */\n      tag_187\n      jump\t// in\n    tag_186:\n        /* \"contracts/ROACHCOIN.sol\":4933:4950  uint256 c = a + b */\n      swap1\n      pop\n        /* \"contracts/ROACHCOIN.sol\":4970:4971  a */\n      dup4\n        /* \"contracts/ROACHCOIN.sol\":4965:4966  c */\n      dup2\n        /* \"contracts/ROACHCOIN.sol\":4965:4971  c >= a */\n      lt\n      iszero\n        /* \"contracts/ROACHCOIN.sol\":4957:5003  require(c >= a, \"SafeMath: addition overflow\") */\n      tag_188\n      jumpi\n      mload(0x40)\n      shl(0xe5, 0x461bcd)\n      dup2\n      mstore\n        /* \"#utility.yul\":6822:6824   */\n      0x20\n        /* \"contracts/ROACHCOIN.sol\":4957:5003  require(c >= a, \"SafeMath: addition overflow\") */\n      0x04\n      dup3\n      add\n        /* \"#utility.yul\":6804:6825   */\n      mstore\n        /* \"#utility.yul\":6861:6863   */\n      0x1b\n        /* \"#utility.yul\":6841:6859   */\n      0x24\n      dup3\n      add\n        /* \"#utility.yul\":6834:6864   */\n      mstore\n        /* \"#utility.yul\":6900:6929   */\n      0x536166654d6174683a206164646974696f6e206f766572666c6f770000000000\n        /* \"#utility.yul\":6880:6898   */\n      0x44\n      dup3\n      add\n        /* \"#utility.yul\":6873:6930   */\n      mstore\n        /* \"#utility.yul\":6947:6965   */\n      0x64\n      add\n        /* \"contracts/ROACHCOIN.sol\":4957:5003  require(c >= a, \"SafeMath: addition overflow\") */\n      tag_117\n        /* \"#utility.yul\":6620:6971   */\n      jump\n        /* \"contracts/ROACHCOIN.sol\":4957:5003  require(c >= a, \"SafeMath: addition overflow\") */\n    tag_188:\n        /* \"contracts/ROACHCOIN.sol\":5019:5020  c */\n      swap4\n        /* \"contracts/ROACHCOIN.sol\":4859:5026  function add(uint256 a, uint256 b) internal pure returns (uint256) {... */\n      swap3\n      pop\n      pop\n      pop\n      jump\t// out\n        /* \"contracts/ROACHCOIN.sol\":5281:5411  function sub(uint256 a, uint256 b) internal pure returns (uint256) {... */\n    tag_126:\n        /* \"contracts/ROACHCOIN.sol\":5339:5346  uint256 */\n      0x00\n        /* \"contracts/ROACHCOIN.sol\":5362:5405  sub(a, b, \"SafeMath: subtraction overflow\") */\n      tag_188\n        /* \"contracts/ROACHCOIN.sol\":5366:5367  a */\n      dup4\n        /* \"contracts/ROACHCOIN.sol\":5369:5370  b */\n      dup4\n        /* \"contracts/ROACHCOIN.sol\":5362:5405  sub(a, b, \"SafeMath: subtraction overflow\") */\n      mload(0x40)\n      dup1\n      0x40\n      add\n      0x40\n      mstore\n      dup1\n      0x1e\n      dup2\n      mstore\n      0x20\n      add\n      0x536166654d6174683a207375627472616374696f6e206f766572666c6f770000\n      dup2\n      mstore\n      pop\n        /* \"contracts/ROACHCOIN.sol\":5362:5365  sub */\n      tag_106\n        /* \"contracts/ROACHCOIN.sol\":5362:5405  sub(a, b, \"SafeMath: subtraction overflow\") */\n      jump\t// in\n        /* \"contracts/ROACHCOIN.sol\":11100:11315  function _transferOwnership(address newOwner) internal {... */\n    tag_160:\n      sub(shl(0xa0, 0x01), 0x01)\n        /* \"contracts/ROACHCOIN.sol\":11170:11192  newOwner != address(0) */\n      dup2\n      and\n        /* \"contracts/ROACHCOIN.sol\":11162:11235  require(newOwner != address(0), \"Ownable: new owner is the zero address\") */\n      tag_194\n      jumpi\n      mload(0x40)\n      shl(0xe5, 0x461bcd)\n      dup2\n      mstore\n        /* \"#utility.yul\":7178:7180   */\n      0x20\n        /* \"contracts/ROACHCOIN.sol\":11162:11235  require(newOwner != address(0), \"Ownable: new owner is the zero address\") */\n      0x04\n      dup3\n      add\n        /* \"#utility.yul\":7160:7181   */\n      mstore\n        /* \"#utility.yul\":7217:7219   */\n      0x26\n        /* \"#utility.yul\":7197:7215   */\n      0x24\n      dup3\n      add\n        /* \"#utility.yul\":7190:7220   */\n      mstore\n        /* \"#utility.yul\":7256:7290   */\n      0x4f776e61626c653a206e6577206f776e657220697320746865207a65726f2061\n        /* \"#utility.yul\":7236:7254   */\n      0x44\n      dup3\n      add\n        /* \"#utility.yul\":7229:7291   */\n      mstore\n      shl(0xd0, 0x646472657373)\n        /* \"#utility.yul\":7307:7325   */\n      0x64\n      dup3\n      add\n        /* \"#utility.yul\":7300:7336   */\n      mstore\n        /* \"#utility.yul\":7353:7372   */\n      0x84\n      add\n        /* \"contracts/ROACHCOIN.sol\":11162:11235  require(newOwner != address(0), \"Ownable: new owner is the zero address\") */\n      tag_117\n        /* \"#utility.yul\":6976:7378   */\n      jump\n        /* \"contracts/ROACHCOIN.sol\":11162:11235  require(newOwner != address(0), \"Ownable: new owner is the zero address\") */\n    tag_194:\n        /* \"contracts/ROACHCOIN.sol\":11268:11274  _owner */\n      0x00\n      dup1\n      sload\n        /* \"contracts/ROACHCOIN.sol\":11247:11285  OwnershipTransferred(_owner, newOwner) */\n      mload(0x40)\n      sub(shl(0xa0, 0x01), 0x01)\n      dup1\n      dup6\n      and\n      swap4\n        /* \"contracts/ROACHCOIN.sol\":11268:11274  _owner */\n      swap3\n      and\n      swap2\n        /* \"contracts/ROACHCOIN.sol\":11247:11285  OwnershipTransferred(_owner, newOwner) */\n      0x8be0079c531659141344cd1fd0a4f28419497f9722a3daafe3b4186f6b6457e0\n      swap2\n      log3\n        /* \"contracts/ROACHCOIN.sol\":11292:11298  _owner */\n      0x00\n        /* \"contracts/ROACHCOIN.sol\":11292:11309  _owner = newOwner */\n      dup1\n      sload\n      not(sub(shl(0xa0, 0x01), 0x01))\n      and\n      sub(shl(0xa0, 0x01), 0x01)\n      swap3\n      swap1\n      swap3\n      and\n      swap2\n      swap1\n      swap2\n      or\n      swap1\n      sstore\n        /* \"contracts/ROACHCOIN.sol\":11100:11315  function _transferOwnership(address newOwner) internal {... */\n      jump\t// out\n        /* \"#utility.yul\":14:562   */\n    tag_25:\n        /* \"#utility.yul\":126:130   */\n      0x00\n        /* \"#utility.yul\":155:157   */\n      0x20\n        /* \"#utility.yul\":184:186   */\n      dup1\n        /* \"#utility.yul\":173:182   */\n      dup4\n        /* \"#utility.yul\":166:187   */\n      mstore\n        /* \"#utility.yul\":216:222   */\n      dup4\n        /* \"#utility.yul\":210:223   */\n      mload\n        /* \"#utility.yul\":259:265   */\n      dup1\n        /* \"#utility.yul\":254:256   */\n      dup3\n        /* \"#utility.yul\":243:252   */\n      dup6\n        /* \"#utility.yul\":239:257   */\n      add\n        /* \"#utility.yul\":232:266   */\n      mstore\n        /* \"#utility.yul\":284:285   */\n      0x00\n        /* \"#utility.yul\":294:434   */\n    tag_201:\n        /* \"#utility.yul\":308:314   */\n      dup2\n        /* \"#utility.yul\":305:306   */\n      dup2\n        /* \"#utility.yul\":302:315   */\n      lt\n        /* \"#utility.yul\":294:434   */\n      iszero\n      tag_203\n      jumpi\n        /* \"#utility.yul\":403:417   */\n      dup6\n      dup2\n      add\n        /* \"#utility.yul\":399:422   */\n      dup4\n      add\n        /* \"#utility.yul\":393:423   */\n      mload\n        /* \"#utility.yul\":369:386   */\n      dup6\n      dup3\n      add\n        /* \"#utility.yul\":388:390   */\n      0x40\n        /* \"#utility.yul\":365:391   */\n      add\n        /* \"#utility.yul\":358:424   */\n      mstore\n        /* \"#utility.yul\":323:333   */\n      dup3\n      add\n        /* \"#utility.yul\":294:434   */\n      jump(tag_201)\n    tag_203:\n        /* \"#utility.yul\":298:301   */\n      pop\n        /* \"#utility.yul\":483:484   */\n      0x00\n        /* \"#utility.yul\":478:480   */\n      0x40\n        /* \"#utility.yul\":469:475   */\n      dup3\n        /* \"#utility.yul\":458:467   */\n      dup7\n        /* \"#utility.yul\":454:476   */\n      add\n        /* \"#utility.yul\":450:481   */\n      add\n        /* \"#utility.yul\":443:485   */\n      mstore\n        /* \"#utility.yul\":553:555   */\n      0x40\n        /* \"#utility.yul\":546:548   */\n      0x1f\n        /* \"#utility.yul\":542:549   */\n      not\n        /* \"#utility.yul\":537:539   */\n      0x1f\n        /* \"#utility.yul\":529:535   */\n      dup4\n        /* \"#utility.yul\":525:540   */\n      add\n        /* \"#utility.yul\":521:550   */\n      and\n        /* \"#utility.yul\":510:519   */\n      dup6\n        /* \"#utility.yul\":506:551   */\n      add\n        /* \"#utility.yul\":502:556   */\n      add\n        /* \"#utility.yul\":494:556   */\n      swap3\n      pop\n      pop\n      pop\n        /* \"#utility.yul\":14:562   */\n      swap3\n      swap2\n      pop\n      pop\n      jump\t// out\n        /* \"#utility.yul\":567:740   */\n    tag_197:\n        /* \"#utility.yul\":635:655   */\n      dup1\n      calldataload\n      sub(shl(0xa0, 0x01), 0x01)\n        /* \"#utility.yul\":684:715   */\n      dup2\n      and\n        /* \"#utility.yul\":674:716   */\n      dup2\n      eq\n        /* \"#utility.yul\":664:734   */\n      tag_205\n      jumpi\n        /* \"#utility.yul\":730:731   */\n      0x00\n        /* \"#utility.yul\":727:728   */\n      dup1\n        /* \"#utility.yul\":720:732   */\n      revert\n        /* \"#utility.yul\":664:734   */\n    tag_205:\n        /* \"#utility.yul\":567:740   */\n      swap2\n      swap1\n      pop\n      jump\t// out\n        /* \"#utility.yul\":745:999   */\n    tag_28:\n        /* \"#utility.yul\":813:819   */\n      0x00\n        /* \"#utility.yul\":821:827   */\n      dup1\n        /* \"#utility.yul\":874:876   */\n      0x40\n        /* \"#utility.yul\":862:871   */\n      dup4\n        /* \"#utility.yul\":853:860   */\n      dup6\n        /* \"#utility.yul\":849:872   */\n      sub\n        /* \"#utility.yul\":845:877   */\n      slt\n        /* \"#utility.yul\":842:894   */\n      iszero\n      tag_207\n      jumpi\n        /* \"#utility.yul\":890:891   */\n      0x00\n        /* \"#utility.yul\":887:888   */\n      dup1\n        /* \"#utility.yul\":880:892   */\n      revert\n        /* \"#utility.yul\":842:894   */\n    tag_207:\n        /* \"#utility.yul\":913:942   */\n      tag_208\n        /* \"#utility.yul\":932:941   */\n      dup4\n        /* \"#utility.yul\":913:942   */\n      tag_197\n      jump\t// in\n    tag_208:\n        /* \"#utility.yul\":903:942   */\n      swap5\n        /* \"#utility.yul\":989:991   */\n      0x20\n        /* \"#utility.yul\":974:992   */\n      swap4\n      swap1\n      swap4\n      add\n        /* \"#utility.yul\":961:993   */\n      calldataload\n      swap4\n      pop\n      pop\n      pop\n        /* \"#utility.yul\":745:999   */\n      jump\t// out\n        /* \"#utility.yul\":1378:1706   */\n    tag_38:\n        /* \"#utility.yul\":1455:1461   */\n      0x00\n        /* \"#utility.yul\":1463:1469   */\n      dup1\n        /* \"#utility.yul\":1471:1477   */\n      0x00\n        /* \"#utility.yul\":1524:1526   */\n      0x60\n        /* \"#utility.yul\":1512:1521   */\n      dup5\n        /* \"#utility.yul\":1503:1510   */\n      dup7\n        /* \"#utility.yul\":1499:1522   */\n      sub\n        /* \"#utility.yul\":1495:1527   */\n      slt\n        /* \"#utility.yul\":1492:1544   */\n      iszero\n      tag_212\n      jumpi\n        /* \"#utility.yul\":1540:1541   */\n      0x00\n        /* \"#utility.yul\":1537:1538   */\n      dup1\n        /* \"#utility.yul\":1530:1542   */\n      revert\n        /* \"#utility.yul\":1492:1544   */\n    tag_212:\n        /* \"#utility.yul\":1563:1592   */\n      tag_213\n        /* \"#utility.yul\":1582:1591   */\n      dup5\n        /* \"#utility.yul\":1563:1592   */\n      tag_197\n      jump\t// in\n    tag_213:\n        /* \"#utility.yul\":1553:1592   */\n      swap3\n      pop\n        /* \"#utility.yul\":1611:1649   */\n      tag_214\n        /* \"#utility.yul\":1645:1647   */\n      0x20\n        /* \"#utility.yul\":1634:1643   */\n      dup6\n        /* \"#utility.yul\":1630:1648   */\n      add\n        /* \"#utility.yul\":1611:1649   */\n      tag_197\n      jump\t// in\n    tag_214:\n        /* \"#utility.yul\":1601:1649   */\n      swap2\n      pop\n        /* \"#utility.yul\":1696:1698   */\n      0x40\n        /* \"#utility.yul\":1685:1694   */\n      dup5\n        /* \"#utility.yul\":1681:1699   */\n      add\n        /* \"#utility.yul\":1668:1700   */\n      calldataload\n        /* \"#utility.yul\":1658:1700   */\n      swap1\n      pop\n        /* \"#utility.yul\":1378:1706   */\n      swap3\n      pop\n      swap3\n      pop\n      swap3\n      jump\t// out\n        /* \"#utility.yul\":1900:2080   */\n    tag_51:\n        /* \"#utility.yul\":1959:1965   */\n      0x00\n        /* \"#utility.yul\":2012:2014   */\n      0x20\n        /* \"#utility.yul\":2000:2009   */\n      dup3\n        /* \"#utility.yul\":1991:1998   */\n      dup5\n        /* \"#utility.yul\":1987:2010   */\n      sub\n        /* \"#utility.yul\":1983:2015   */\n      slt\n        /* \"#utility.yul\":1980:2032   */\n      iszero\n      tag_217\n      jumpi\n        /* \"#utility.yul\":2028:2029   */\n      0x00\n        /* \"#utility.yul\":2025:2026   */\n      dup1\n        /* \"#utility.yul\":2018:2030   */\n      revert\n        /* \"#utility.yul\":1980:2032   */\n    tag_217:\n      pop\n        /* \"#utility.yul\":2051:2074   */\n      calldataload\n      swap2\n        /* \"#utility.yul\":1900:2080   */\n      swap1\n      pop\n      jump\t// out\n        /* \"#utility.yul\":2085:2271   */\n    tag_55:\n        /* \"#utility.yul\":2144:2150   */\n      0x00\n        /* \"#utility.yul\":2197:2199   */\n      0x20\n        /* \"#utility.yul\":2185:2194   */\n      dup3\n        /* \"#utility.yul\":2176:2183   */\n      dup5\n        /* \"#utility.yul\":2172:2195   */\n      sub\n        /* \"#utility.yul\":2168:2200   */\n      slt\n        /* \"#utility.yul\":2165:2217   */\n      iszero\n      tag_219\n      jumpi\n        /* \"#utility.yul\":2213:2214   */\n      0x00\n        /* \"#utility.yul\":2210:2211   */\n      dup1\n        /* \"#utility.yul\":2203:2215   */\n      revert\n        /* \"#utility.yul\":2165:2217   */\n    tag_219:\n        /* \"#utility.yul\":2236:2265   */\n      tag_188\n        /* \"#utility.yul\":2255:2264   */\n      dup3\n        /* \"#utility.yul\":2236:2265   */\n      tag_197\n      jump\t// in\n        /* \"#utility.yul\":2484:2744   */\n    tag_80:\n        /* \"#utility.yul\":2552:2558   */\n      0x00\n        /* \"#utility.yul\":2560:2566   */\n      dup1\n        /* \"#utility.yul\":2613:2615   */\n      0x40\n        /* \"#utility.yul\":2601:2610   */\n      dup4\n        /* \"#utility.yul\":2592:2599   */\n      dup6\n        /* \"#utility.yul\":2588:2611   */\n      sub\n        /* \"#utility.yul\":2584:2616   */\n      slt\n        /* \"#utility.yul\":2581:2633   */\n      iszero\n      tag_223\n      jumpi\n        /* \"#utility.yul\":2629:2630   */\n      0x00\n        /* \"#utility.yul\":2626:2627   */\n      dup1\n        /* \"#utility.yul\":2619:2631   */\n      revert\n        /* \"#utility.yul\":2581:2633   */\n    tag_223:\n        /* \"#utility.yul\":2652:2681   */\n      tag_224\n        /* \"#utility.yul\":2671:2680   */\n      dup4\n        /* \"#utility.yul\":2652:2681   */\n      tag_197\n      jump\t// in\n    tag_224:\n        /* \"#utility.yul\":2642:2681   */\n      swap2\n      pop\n        /* \"#utility.yul\":2700:2738   */\n      tag_225\n        /* \"#utility.yul\":2734:2736   */\n      0x20\n        /* \"#utility.yul\":2723:2732   */\n      dup5\n        /* \"#utility.yul\":2719:2737   */\n      add\n        /* \"#utility.yul\":2700:2738   */\n      tag_197\n      jump\t// in\n    tag_225:\n        /* \"#utility.yul\":2690:2738   */\n      swap1\n      pop\n        /* \"#utility.yul\":2484:2744   */\n      swap3\n      pop\n      swap3\n      swap1\n      pop\n      jump\t// out\n        /* \"#utility.yul\":2749:3129   */\n    tag_88:\n        /* \"#utility.yul\":2828:2829   */\n      0x01\n        /* \"#utility.yul\":2824:2836   */\n      dup2\n      dup2\n      shr\n      swap1\n        /* \"#utility.yul\":2871:2883   */\n      dup3\n      and\n      dup1\n        /* \"#utility.yul\":2892:2953   */\n      tag_227\n      jumpi\n        /* \"#utility.yul\":2946:2950   */\n      0x7f\n        /* \"#utility.yul\":2938:2944   */\n      dup3\n        /* \"#utility.yul\":2934:2951   */\n      and\n        /* \"#utility.yul\":2924:2951   */\n      swap2\n      pop\n        /* \"#utility.yul\":2892:2953   */\n    tag_227:\n        /* \"#utility.yul\":2999:3001   */\n      0x20\n        /* \"#utility.yul\":2991:2997   */\n      dup3\n        /* \"#utility.yul\":2988:3002   */\n      lt\n        /* \"#utility.yul\":2968:2986   */\n      dup2\n        /* \"#utility.yul\":2965:3003   */\n      sub\n        /* \"#utility.yul\":2962:3123   */\n      tag_228\n      jumpi\n        /* \"#utility.yul\":3045:3055   */\n      0x4e487b71\n        /* \"#utility.yul\":3040:3043   */\n      0xe0\n        /* \"#utility.yul\":3036:3056   */\n      shl\n        /* \"#utility.yul\":3033:3034   */\n      0x00\n        /* \"#utility.yul\":3026:3057   */\n      mstore\n        /* \"#utility.yul\":3080:3084   */\n      0x22\n        /* \"#utility.yul\":3077:3078   */\n      0x04\n        /* \"#utility.yul\":3070:3085   */\n      mstore\n        /* \"#utility.yul\":3108:3112   */\n      0x24\n        /* \"#utility.yul\":3105:3106   */\n      0x00\n        /* \"#utility.yul\":3098:3113   */\n      revert\n        /* \"#utility.yul\":2962:3123   */\n    tag_228:\n      pop\n        /* \"#utility.yul\":2749:3129   */\n      swap2\n      swap1\n      pop\n      jump\t// out\n        /* \"#utility.yul\":6225:6352   */\n    tag_198:\n        /* \"#utility.yul\":6286:6296   */\n      0x4e487b71\n        /* \"#utility.yul\":6281:6284   */\n      0xe0\n        /* \"#utility.yul\":6277:6297   */\n      shl\n        /* \"#utility.yul\":6274:6275   */\n      0x00\n        /* \"#utility.yul\":6267:6298   */\n      mstore\n        /* \"#utility.yul\":6317:6321   */\n      0x11\n        /* \"#utility.yul\":6314:6315   */\n      0x04\n        /* \"#utility.yul\":6307:6322   */\n      mstore\n        /* \"#utility.yul\":6341:6345   */\n      0x24\n        /* \"#utility.yul\":6338:6339   */\n      0x00\n        /* \"#utility.yul\":6331:6346   */\n      revert\n        /* \"#utility.yul\":6357:6485   */\n    tag_184:\n        /* \"#utility.yul\":6424:6433   */\n      dup2\n      dup2\n      sub\n        /* \"#utility.yul\":6445:6456   */\n      dup2\n      dup2\n      gt\n        /* \"#utility.yul\":6442:6479   */\n      iszero\n      tag_93\n      jumpi\n        /* \"#utility.yul\":6459:6477   */\n      tag_93\n      tag_198\n      jump\t// in\n        /* \"#utility.yul\":6490:6615   */\n    tag_187:\n        /* \"#utility.yul\":6555:6564   */\n      dup1\n      dup3\n      add\n        /* \"#utility.yul\":6576:6586   */\n      dup1\n      dup3\n      gt\n        /* \"#utility.yul\":6573:6609   */\n      iszero\n      tag_93\n      jumpi\n        /* \"#utility.yul\":6589:6607   */\n      tag_93\n      tag_198\n      jump\t// in\n    stop\n    data_4f3506f4ba71c79c3cbd442a3afeb30e9b27af2d84e116a4385b34e267d2287e 42455032303a207472616e7366657220616d6f756e74206578636565647320616c6c6f77616e6365\n    data_a91efd7a65ef5b4ae4d6568d674798b78a5a89184dd296c100513251c22d3e73 42455032303a207472616e7366657220616d6f756e7420657863656564732062616c616e6365\n    data_b7060b3538dcd3ddc8a941c91636a8115a1aa46914747fd9809d543bbb46cd22 42455032303a2064656372656173656420616c6c6f77616e63652062656c6f77207a65726f\n\n    auxdata: 0xa26469706673582212205fd7eb0021c21167deecf905a9dd195e1e135b61942f642d79029f28828df38c64736f6c63430008120033\n}\n",
				"bytecode": {
					"linkReferences": {},
					"object": "60806040523480156200001157600080fd5b50600080546001600160a01b031916339081178255604051909182917f8be0079c531659141344cd1fd0a4f28419497f9722a3daafe3b4186f6b6457e0908290a35060408051808201909152600e81526d21a7a1a5a927a0a1a416a1a7a4a760911b6020820152600690620000879082620001d1565b506040805180820190915260098152682927a0a1a421a7a4a760b91b6020820152600590620000b79082620001d1565b506004805460ff191660121790556af8277896582678ac00000060038190553360008181526001602052604080822084905551919290917fddf252ad1be2c89b69c2b068fc378daa952ba7f163c4a11628f55a4df523b3ef916200011e9190815260200190565b60405180910390a36200029d565b634e487b7160e01b600052604160045260246000fd5b600181811c908216806200015757607f821691505b6020821081036200017857634e487b7160e01b600052602260045260246000fd5b50919050565b601f821115620001cc57600081815260208120601f850160051c81016020861015620001a75750805b601f850160051c820191505b81811015620001c857828155600101620001b3565b5050505b505050565b81516001600160401b03811115620001ed57620001ed6200012c565b6200020581620001fe845462000142565b846200017e565b602080601f8311600181146200023d5760008415620002245750858301515b600019600386901b1c1916600185901b178555620001c8565b600085815260208120601f198616915b828110156200026e578886015182559484019460019091019084016200024d565b50858210156200028d5787850151600019600388901b60f8161c191681555b5050505050600190811b01905550565b610d8380620002ad6000396000f3fe608060405234801561001057600080fd5b50600436106101005760003560e01c8063715018a611610097578063a457c2d711610066578063a457c2d714610217578063a9059cbb1461022a578063dd62ed3e1461023d578063f2fde38b1461027657600080fd5b8063715018a6146101d1578063893d20e8146101d95780638da5cb5b146101fe57806395d89b411461020f57600080fd5b8063313ce567116100d3578063313ce5671461016b578063395093511461018057806342966c681461019357806370a08231146101a857600080fd5b806306fdde0314610105578063095ea7b31461012357806318160ddd1461014657806323b872dd14610158575b600080fd5b61010d610289565b60405161011a9190610b2d565b60405180910390f35b610136610131366004610b97565b61031b565b604051901515815260200161011a565b6003545b60405190815260200161011a565b610136610166366004610bc1565b610332565b60045460405160ff909116815260200161011a565b61013661018e366004610b97565b61039b565b6101a66101a1366004610bfd565b6103d1565b005b61014a6101b6366004610c16565b6001600160a01b031660009081526001602052604090205490565b6101a661056b565b6000546001600160a01b03165b6040516001600160a01b03909116815260200161011a565b6000546001600160a01b03166101e6565b61010d61060f565b610136610225366004610b97565b61061e565b610136610238366004610b97565b61066d565b61014a61024b366004610c31565b6001600160a01b03918216600090815260026020908152604080832093909416825291909152205490565b6101a6610284366004610c16565b61067a565b60606006805461029890610c64565b80601f01602080910402602001604051908101604052809291908181526020018280546102c490610c64565b80156103115780601f106102e657610100808354040283529160200191610311565b820191906000526020600020905b8154815290600101906020018083116102f457829003601f168201915b5050505050905090565b60006103283384846106e0565b5060015b92915050565b600061033f848484610805565b610391843361038c85604051806060016040528060288152602001610cdb602891396001600160a01b038a166000908152600260209081526040808320338452909152902054919061098b565b6106e0565b5060019392505050565b3360008181526002602090815260408083206001600160a01b0387168452909152812054909161032891859061038c90866109c5565b338061042e5760405162461bcd60e51b815260206004820152602160248201527f42455032303a206275726e2066726f6d20746865207a65726f206164647265736044820152607360f81b60648201526084015b60405180910390fd5b6000821161047e5760405162461bcd60e51b815260206004820181905260248201527f416d6f756e74206d7573742062652067726561746572207468616e207a65726f6044820152606401610425565b6001600160a01b0381166000908152600160205260409020548211156104dd5760405162461bcd60e51b8152602060048201526014602482015273496e73756666696369656e742062616c616e636560601b6044820152606401610425565b6001600160a01b0381166000908152600160205260409020546105009083610a2b565b6001600160a01b0382166000908152600160205260409020556003546105269083610a2b565b6003556040518281526001600160a01b038216907fcc16f5dbb4873280815c1ee09dbd06736cffcc184412cf7a71a0fdb75d397ca59060200160405180910390a25050565b6000546001600160a01b031633146105c55760405162461bcd60e51b815260206004820181905260248201527f4f776e61626c653a2063616c6c6572206973206e6f7420746865206f776e65726044820152606401610425565b600080546040516001600160a01b03909116907f8be0079c531659141344cd1fd0a4f28419497f9722a3daafe3b4186f6b6457e0908390a3600080546001600160a01b0319169055565b60606005805461029890610c64565b6000610328338461038c85604051806060016040528060258152602001610d29602591393360009081526002602090815260408083206001600160a01b038d168452909152902054919061098b565b6000610328338484610805565b6000546001600160a01b031633146106d45760405162461bcd60e51b815260206004820181905260248201527f4f776e61626c653a2063616c6c6572206973206e6f7420746865206f776e65726044820152606401610425565b6106dd81610a6d565b50565b6001600160a01b0383166107425760405162461bcd60e51b8152602060048201526024808201527f42455032303a20617070726f76652066726f6d20746865207a65726f206164646044820152637265737360e01b6064820152608401610425565b6001600160a01b0382166107a35760405162461bcd60e51b815260206004820152602260248201527f42455032303a20617070726f766520746f20746865207a65726f206164647265604482015261737360f01b6064820152608401610425565b6001600160a01b0383811660008181526002602090815260408083209487168084529482529182902085905590518481527f8c5be1e5ebec7d5bd14f71427d1e84f3dd0314c0f7b2291e5b200ac8c7c3b92591015b60405180910390a3505050565b6001600160a01b0383166108695760405162461bcd60e51b815260206004820152602560248201527f42455032303a207472616e736665722066726f6d20746865207a65726f206164604482015264647265737360d81b6064820152608401610425565b6001600160a01b0382166108cb5760405162461bcd60e51b815260206004820152602360248201527f42455032303a207472616e7366657220746f20746865207a65726f206164647260448201526265737360e81b6064820152608401610425565b61090881604051806060016040528060268152602001610d03602691396001600160a01b038616600090815260016020526040902054919061098b565b6001600160a01b03808516600090815260016020526040808220939093559084168152205461093790826109c5565b6001600160a01b0380841660008181526001602052604090819020939093559151908516907fddf252ad1be2c89b69c2b068fc378daa952ba7f163c4a11628f55a4df523b3ef906107f89085815260200190565b600081848411156109af5760405162461bcd60e51b81526004016104259190610b2d565b5060006109bc8486610cb4565b95945050505050565b6000806109d28385610cc7565b905083811015610a245760405162461bcd60e51b815260206004820152601b60248201527f536166654d6174683a206164646974696f6e206f766572666c6f7700000000006044820152606401610425565b9392505050565b6000610a2483836040518060400160405280601e81526020017f536166654d6174683a207375627472616374696f6e206f766572666c6f77000081525061098b565b6001600160a01b038116610ad25760405162461bcd60e51b815260206004820152602660248201527f4f776e61626c653a206e6577206f776e657220697320746865207a65726f206160448201526564647265737360d01b6064820152608401610425565b600080546040516001600160a01b03808516939216917f8be0079c531659141344cd1fd0a4f28419497f9722a3daafe3b4186f6b6457e091a3600080546001600160a01b0319166001600160a01b0392909216919091179055565b600060208083528351808285015260005b81811015610b5a57858101830151858201604001528201610b3e565b506000604082860101526040601f19601f8301168501019250505092915050565b80356001600160a01b0381168114610b9257600080fd5b919050565b60008060408385031215610baa57600080fd5b610bb383610b7b565b946020939093013593505050565b600080600060608486031215610bd657600080fd5b610bdf84610b7b565b9250610bed60208501610b7b565b9150604084013590509250925092565b600060208284031215610c0f57600080fd5b5035919050565b600060208284031215610c2857600080fd5b610a2482610b7b565b60008060408385031215610c4457600080fd5b610c4d83610b7b565b9150610c5b60208401610b7b565b90509250929050565b600181811c90821680610c7857607f821691505b602082108103610c9857634e487b7160e01b600052602260045260246000fd5b50919050565b634e487b7160e01b600052601160045260246000fd5b8181038181111561032c5761032c610c9e565b8082018082111561032c5761032c610c9e56fe42455032303a207472616e7366657220616d6f756e74206578636565647320616c6c6f77616e636542455032303a207472616e7366657220616d6f756e7420657863656564732062616c616e636542455032303a2064656372656173656420616c6c6f77616e63652062656c6f77207a65726fa26469706673582212205fd7eb0021c21167deecf905a9dd195e1e135b61942f642d79029f28828df38c64736f6c63430008120033",
					"opcodes": "PUSH1 0x80 PUSH1 0x40 MSTORE CALLVALUE DUP1 ISZERO PUSH3 0x11 JUMPI PUSH1 0x0 DUP1 REVERT JUMPDEST POP PUSH1 0x0 DUP1 SLOAD PUSH1 0x1 PUSH1 0x1 PUSH1 0xA0 SHL SUB NOT AND CALLER SWAP1 DUP2 OR DUP3 SSTORE PUSH1 0x40 MLOAD SWAP1 SWAP2 DUP3 SWAP2 PUSH32 0x8BE0079C531659141344CD1FD0A4F28419497F9722A3DAAFE3B4186F6B6457E0 SWAP1 DUP3 SWAP1 LOG3 POP PUSH1 0x40 DUP1 MLOAD DUP1 DUP3 ADD SWAP1 SWAP2 MSTORE PUSH1 0xE DUP2 MSTORE PUSH14 0x21A7A1A5A927A0A1A416A1A7A4A7 PUSH1 0x91 SHL PUSH1 0x20 DUP3 ADD MSTORE PUSH1 0x6 SWAP1 PUSH3 0x87 SWAP1 DUP3 PUSH3 0x1D1 JUMP JUMPDEST POP PUSH1 0x40 DUP1 MLOAD DUP1 DUP3 ADD SWAP1 SWAP2 MSTORE PUSH1 0x9 DUP2 MSTORE PUSH9 0x2927A0A1A421A7A4A7 PUSH1 0xB9 SHL PUSH1 0x20 DUP3 ADD MSTORE PUSH1 0x5 SWAP1 PUSH3 0xB7 SWAP1 DUP3 PUSH3 0x1D1 JUMP JUMPDEST POP PUSH1 0x4 DUP1 SLOAD PUSH1 0xFF NOT AND PUSH1 0x12 OR SWAP1 SSTORE PUSH11 0xF8277896582678AC000000 PUSH1 0x3 DUP2 SWAP1 SSTORE CALLER PUSH1 0x0 DUP2 DUP2 MSTORE PUSH1 0x1 PUSH1 0x20 MSTORE PUSH1 0x40 DUP1 DUP3 KECCAK256 DUP5 SWAP1 SSTORE MLOAD SWAP2 SWAP3 SWAP1 SWAP2 PUSH32 0xDDF252AD1BE2C89B69C2B068FC378DAA952BA7F163C4A11628F55A4DF523B3EF SWAP2 PUSH3 0x11E SWAP2 SWAP1 DUP2 MSTORE PUSH1 0x20 ADD SWAP1 JUMP JUMPDEST PUSH1 0x40 MLOAD DUP1 SWAP2 SUB SWAP1 LOG3 PUSH3 0x29D JUMP JUMPDEST PUSH4 0x4E487B71 PUSH1 0xE0 SHL PUSH1 0x0 MSTORE PUSH1 0x41 PUSH1 0x4 MSTORE PUSH1 0x24 PUSH1 0x0 REVERT JUMPDEST PUSH1 0x1 DUP2 DUP2 SHR SWAP1 DUP3 AND DUP1 PUSH3 0x157 JUMPI PUSH1 0x7F DUP3 AND SWAP2 POP JUMPDEST PUSH1 0x20 DUP3 LT DUP2 SUB PUSH3 0x178 JUMPI PUSH4 0x4E487B71 PUSH1 0xE0 SHL PUSH1 0x0 MSTORE PUSH1 0x22 PUSH1 0x4 MSTORE PUSH1 0x24 PUSH1 0x0 REVERT JUMPDEST POP SWAP2 SWAP1 POP JUMP JUMPDEST PUSH1 0x1F DUP3 GT ISZERO PUSH3 0x1CC JUMPI PUSH1 0x0 DUP2 DUP2 MSTORE PUSH1 0x20 DUP2 KECCAK256 PUSH1 0x1F DUP6 ADD PUSH1 0x5 SHR DUP2 ADD PUSH1 0x20 DUP7 LT ISZERO PUSH3 0x1A7 JUMPI POP DUP1 JUMPDEST PUSH1 0x1F DUP6 ADD PUSH1 0x5 SHR DUP3 ADD SWAP2 POP JUMPDEST DUP2 DUP2 LT ISZERO PUSH3 0x1C8 JUMPI DUP3 DUP2 SSTORE PUSH1 0x1 ADD PUSH3 0x1B3 JUMP JUMPDEST POP POP POP JUMPDEST POP POP POP JUMP JUMPDEST DUP2 MLOAD PUSH1 0x1 PUSH1 0x1 PUSH1 0x40 SHL SUB DUP2 GT ISZERO PUSH3 0x1ED JUMPI PUSH3 0x1ED PUSH3 0x12C JUMP JUMPDEST PUSH3 0x205 DUP2 PUSH3 0x1FE DUP5 SLOAD PUSH3 0x142 JUMP JUMPDEST DUP5 PUSH3 0x17E JUMP JUMPDEST PUSH1 0x20 DUP1 PUSH1 0x1F DUP4 GT PUSH1 0x1 DUP2 EQ PUSH3 0x23D JUMPI PUSH1 0x0 DUP5 ISZERO PUSH3 0x224 JUMPI POP DUP6 DUP4 ADD MLOAD JUMPDEST PUSH1 0x0 NOT PUSH1 0x3 DUP7 SWAP1 SHL SHR NOT AND PUSH1 0x1 DUP6 SWAP1 SHL OR DUP6 SSTORE PUSH3 0x1C8 JUMP JUMPDEST PUSH1 0x0 DUP6 DUP2 MSTORE PUSH1 0x20 DUP2 KECCAK256 PUSH1 0x1F NOT DUP7 AND SWAP2 JUMPDEST DUP3 DUP2 LT ISZERO PUSH3 0x26E JUMPI DUP9 DUP7 ADD MLOAD DUP3 SSTORE SWAP5 DUP5 ADD SWAP5 PUSH1 0x1 SWAP1 SWAP2 ADD SWAP1 DUP5 ADD PUSH3 0x24D JUMP JUMPDEST POP DUP6 DUP3 LT ISZERO PUSH3 0x28D JUMPI DUP8 DUP6 ADD MLOAD PUSH1 0x0 NOT PUSH1 0x3 DUP9 SWAP1 SHL PUSH1 0xF8 AND SHR NOT AND DUP2 SSTORE JUMPDEST POP POP POP POP POP PUSH1 0x1 SWAP1 DUP2 SHL ADD SWAP1 SSTORE POP JUMP JUMPDEST PUSH2 0xD83 DUP1 PUSH3 0x2AD PUSH1 0x0 CODECOPY PUSH1 0x0 RETURN INVALID PUSH1 0x80 PUSH1 0x40 MSTORE CALLVALUE DUP1 ISZERO PUSH2 0x10 JUMPI PUSH1 0x0 DUP1 REVERT JUMPDEST POP PUSH1 0x4 CALLDATASIZE LT PUSH2 0x100 JUMPI PUSH1 0x0 CALLDATALOAD PUSH1 0xE0 SHR DUP1 PUSH4 0x715018A6 GT PUSH2 0x97 JUMPI DUP1 PUSH4 0xA457C2D7 GT PUSH2 0x66 JUMPI DUP1 PUSH4 0xA457C2D7 EQ PUSH2 0x217 JUMPI DUP1 PUSH4 0xA9059CBB EQ PUSH2 0x22A JUMPI DUP1 PUSH4 0xDD62ED3E EQ PUSH2 0x23D JUMPI DUP1 PUSH4 0xF2FDE38B EQ PUSH2 0x276 JUMPI PUSH1 0x0 DUP1 REVERT JUMPDEST DUP1 PUSH4 0x715018A6 EQ PUSH2 0x1D1 JUMPI DUP1 PUSH4 0x893D20E8 EQ PUSH2 0x1D9 JUMPI DUP1 PUSH4 0x8DA5CB5B EQ PUSH2 0x1FE JUMPI DUP1 PUSH4 0x95D89B41 EQ PUSH2 0x20F JUMPI PUSH1 0x0 DUP1 REVERT JUMPDEST DUP1 PUSH4 0x313CE567 GT PUSH2 0xD3 JUMPI DUP1 PUSH4 0x313CE567 EQ PUSH2 0x16B JUMPI DUP1 PUSH4 0x39509351 EQ PUSH2 0x180 JUMPI DUP1 PUSH4 0x42966C68 EQ PUSH2 0x193 JUMPI DUP1 PUSH4 0x70A08231 EQ PUSH2 0x1A8 JUMPI PUSH1 0x0 DUP1 REVERT JUMPDEST DUP1 PUSH4 0x6FDDE03 EQ PUSH2 0x105 JUMPI DUP1 PUSH4 0x95EA7B3 EQ PUSH2 0x123 JUMPI DUP1 PUSH4 0x18160DDD EQ PUSH2 0x146 JUMPI DUP1 PUSH4 0x23B872DD EQ PUSH2 0x158 JUMPI JUMPDEST PUSH1 0x0 DUP1 REVERT JUMPDEST PUSH2 0x10D PUSH2 0x289 JUMP JUMPDEST PUSH1 0x40 MLOAD PUSH2 0x11A SWAP2 SWAP1 PUSH2 0xB2D JUMP JUMPDEST PUSH1 0x40 MLOAD DUP1 SWAP2 SUB SWAP1 RETURN JUMPDEST PUSH2 0x136 PUSH2 0x131 CALLDATASIZE PUSH1 0x4 PUSH2 0xB97 JUMP JUMPDEST PUSH2 0x31B JUMP JUMPDEST PUSH1 0x40 MLOAD SWAP1 ISZERO ISZERO DUP2 MSTORE PUSH1 0x20 ADD PUSH2 0x11A JUMP JUMPDEST PUSH1 0x3 SLOAD JUMPDEST PUSH1 0x40 MLOAD SWAP1 DUP2 MSTORE PUSH1 0x20 ADD PUSH2 0x11A JUMP JUMPDEST PUSH2 0x136 PUSH2 0x166 CALLDATASIZE PUSH1 0x4 PUSH2 0xBC1 JUMP JUMPDEST PUSH2 0x332 JUMP JUMPDEST PUSH1 0x4 SLOAD PUSH1 0x40 MLOAD PUSH1 0xFF SWAP1 SWAP2 AND DUP2 MSTORE PUSH1 0x20 ADD PUSH2 0x11A JUMP JUMPDEST PUSH2 0x136 PUSH2 0x18E CALLDATASIZE PUSH1 0x4 PUSH2 0xB97 JUMP JUMPDEST PUSH2 0x39B JUMP JUMPDEST PUSH2 0x1A6 PUSH2 0x1A1 CALLDATASIZE PUSH1 0x4 PUSH2 0xBFD JUMP JUMPDEST PUSH2 0x3D1 JUMP JUMPDEST STOP JUMPDEST PUSH2 0x14A PUSH2 0x1B6 CALLDATASIZE PUSH1 0x4 PUSH2 0xC16 JUMP JUMPDEST PUSH1 0x1 PUSH1 0x1 PUSH1 0xA0 SHL SUB AND PUSH1 0x0 SWAP1 DUP2 MSTORE PUSH1 0x1 PUSH1 0x20 MSTORE PUSH1 0x40 SWAP1 KECCAK256 SLOAD SWAP1 JUMP JUMPDEST PUSH2 0x1A6 PUSH2 0x56B JUMP JUMPDEST PUSH1 0x0 SLOAD PUSH1 0x1 PUSH1 0x1 PUSH1 0xA0 SHL SUB AND JUMPDEST PUSH1 0x40 MLOAD PUSH1 0x1 PUSH1 0x1 PUSH1 0xA0 SHL SUB SWAP1 SWAP2 AND DUP2 MSTORE PUSH1 0x20 ADD PUSH2 0x11A JUMP JUMPDEST PUSH1 0x0 SLOAD PUSH1 0x1 PUSH1 0x1 PUSH1 0xA0 SHL SUB AND PUSH2 0x1E6 JUMP JUMPDEST PUSH2 0x10D PUSH2 0x60F JUMP JUMPDEST PUSH2 0x136 PUSH2 0x225 CALLDATASIZE PUSH1 0x4 PUSH2 0xB97 JUMP JUMPDEST PUSH2 0x61E JUMP JUMPDEST PUSH2 0x136 PUSH2 0x238 CALLDATASIZE PUSH1 0x4 PUSH2 0xB97 JUMP JUMPDEST PUSH2 0x66D JUMP JUMPDEST PUSH2 0x14A PUSH2 0x24B CALLDATASIZE PUSH1 0x4 PUSH2 0xC31 JUMP JUMPDEST PUSH1 0x1 PUSH1 0x1 PUSH1 0xA0 SHL SUB SWAP2 DUP3 AND PUSH1 0x0 SWAP1 DUP2 MSTORE PUSH1 0x2 PUSH1 0x20 SWAP1 DUP2 MSTORE PUSH1 0x40 DUP1 DUP4 KECCAK256 SWAP4 SWAP1 SWAP5 AND DUP3 MSTORE SWAP2 SWAP1 SWAP2 MSTORE KECCAK256 SLOAD SWAP1 JUMP JUMPDEST PUSH2 0x1A6 PUSH2 0x284 CALLDATASIZE PUSH1 0x4 PUSH2 0xC16 JUMP JUMPDEST PUSH2 0x67A JUMP JUMPDEST PUSH1 0x60 PUSH1 0x6 DUP1 SLOAD PUSH2 0x298 SWAP1 PUSH2 0xC64 JUMP JUMPDEST DUP1 PUSH1 0x1F ADD PUSH1 0x20 DUP1 SWAP2 DIV MUL PUSH1 0x20 ADD PUSH1 0x40 MLOAD SWAP1 DUP2 ADD PUSH1 0x40 MSTORE DUP1 SWAP3 SWAP2 SWAP1 DUP2 DUP2 MSTORE PUSH1 0x20 ADD DUP3 DUP1 SLOAD PUSH2 0x2C4 SWAP1 PUSH2 0xC64 JUMP JUMPDEST DUP1 ISZERO PUSH2 0x311 JUMPI DUP1 PUSH1 0x1F LT PUSH2 0x2E6 JUMPI PUSH2 0x100 DUP1 DUP4 SLOAD DIV MUL DUP4 MSTORE SWAP2 PUSH1 0x20 ADD SWAP2 PUSH2 0x311 JUMP JUMPDEST DUP3 ADD SWAP2 SWAP1 PUSH1 0x0 MSTORE PUSH1 0x20 PUSH1 0x0 KECCAK256 SWAP1 JUMPDEST DUP2 SLOAD DUP2 MSTORE SWAP1 PUSH1 0x1 ADD SWAP1 PUSH1 0x20 ADD DUP1 DUP4 GT PUSH2 0x2F4 JUMPI DUP3 SWAP1 SUB PUSH1 0x1F AND DUP3 ADD SWAP2 JUMPDEST POP POP POP POP POP SWAP1 POP SWAP1 JUMP JUMPDEST PUSH1 0x0 PUSH2 0x328 CALLER DUP5 DUP5 PUSH2 0x6E0 JUMP JUMPDEST POP PUSH1 0x1 JUMPDEST SWAP3 SWAP2 POP POP JUMP JUMPDEST PUSH1 0x0 PUSH2 0x33F DUP5 DUP5 DUP5 PUSH2 0x805 JUMP JUMPDEST PUSH2 0x391 DUP5 CALLER PUSH2 0x38C DUP6 PUSH1 0x40 MLOAD DUP1 PUSH1 0x60 ADD PUSH1 0x40 MSTORE DUP1 PUSH1 0x28 DUP2 MSTORE PUSH1 0x20 ADD PUSH2 0xCDB PUSH1 0x28 SWAP2 CODECOPY PUSH1 0x1 PUSH1 0x1 PUSH1 0xA0 SHL SUB DUP11 AND PUSH1 0x0 SWAP1 DUP2 MSTORE PUSH1 0x2 PUSH1 0x20 SWAP1 DUP2 MSTORE PUSH1 0x40 DUP1 DUP4 KECCAK256 CALLER DUP5 MSTORE SWAP1 SWAP2 MSTORE SWAP1 KECCAK256 SLOAD SWAP2 SWAP1 PUSH2 0x98B JUMP JUMPDEST PUSH2 0x6E0 JUMP JUMPDEST POP PUSH1 0x1 SWAP4 SWAP3 POP POP POP JUMP JUMPDEST CALLER PUSH1 0x0 DUP2 DUP2 MSTORE PUSH1 0x2 PUSH1 0x20 SWAP1 DUP2 MSTORE PUSH1 0x40 DUP1 DUP4 KECCAK256 PUSH1 0x1 PUSH1 0x1 PUSH1 0xA0 SHL SUB DUP8 AND DUP5 MSTORE SWAP1 SWAP2 MSTORE DUP2 KECCAK256 SLOAD SWAP1 SWAP2 PUSH2 0x328 SWAP2 DUP6 SWAP1 PUSH2 0x38C SWAP1 DUP7 PUSH2 0x9C5 JUMP JUMPDEST CALLER DUP1 PUSH2 0x42E JUMPI PUSH1 0x40 MLOAD PUSH3 0x461BCD PUSH1 0xE5 SHL DUP2 MSTORE PUSH1 0x20 PUSH1 0x4 DUP3 ADD MSTORE PUSH1 0x21 PUSH1 0x24 DUP3 ADD MSTORE PUSH32 0x42455032303A206275726E2066726F6D20746865207A65726F20616464726573 PUSH1 0x44 DUP3 ADD MSTORE PUSH1 0x73 PUSH1 0xF8 SHL PUSH1 0x64 DUP3 ADD MSTORE PUSH1 0x84 ADD JUMPDEST PUSH1 0x40 MLOAD DUP1 SWAP2 SUB SWAP1 REVERT JUMPDEST PUSH1 0x0 DUP3 GT PUSH2 0x47E JUMPI PUSH1 0x40 MLOAD PUSH3 0x461BCD PUSH1 0xE5 SHL DUP2 MSTORE PUSH1 0x20 PUSH1 0x4 DUP3 ADD DUP2 SWAP1 MSTORE PUSH1 0x24 DUP3 ADD MSTORE PUSH32 0x416D6F756E74206D7573742062652067726561746572207468616E207A65726F PUSH1 0x44 DUP3 ADD MSTORE PUSH1 0x64 ADD PUSH2 0x425 JUMP JUMPDEST PUSH1 0x1 PUSH1 0x1 PUSH1 0xA0 SHL SUB DUP2 AND PUSH1 0x0 SWAP1 DUP2 MSTORE PUSH1 0x1 PUSH1 0x20 MSTORE PUSH1 0x40 SWAP1 KECCAK256 SLOAD DUP3 GT ISZERO PUSH2 0x4DD JUMPI PUSH1 0x40 MLOAD PUSH3 0x461BCD PUSH1 0xE5 SHL DUP2 MSTORE PUSH1 0x20 PUSH1 0x4 DUP3 ADD MSTORE PUSH1 0x14 PUSH1 0x24 DUP3 ADD MSTORE PUSH20 0x496E73756666696369656E742062616C616E6365 PUSH1 0x60 SHL PUSH1 0x44 DUP3 ADD MSTORE PUSH1 0x64 ADD PUSH2 0x425 JUMP JUMPDEST PUSH1 0x1 PUSH1 0x1 PUSH1 0xA0 SHL SUB DUP2 AND PUSH1 0x0 SWAP1 DUP2 MSTORE PUSH1 0x1 PUSH1 0x20 MSTORE PUSH1 0x40 SWAP1 KECCAK256 SLOAD PUSH2 0x500 SWAP1 DUP4 PUSH2 0xA2B JUMP JUMPDEST PUSH1 0x1 PUSH1 0x1 PUSH1 0xA0 SHL SUB DUP3 AND PUSH1 0x0 SWAP1 DUP2 MSTORE PUSH1 0x1 PUSH1 0x20 MSTORE PUSH1 0x40 SWAP1 KECCAK256 SSTORE PUSH1 0x3 SLOAD PUSH2 0x526 SWAP1 DUP4 PUSH2 0xA2B JUMP JUMPDEST PUSH1 0x3 SSTORE PUSH1 0x40 MLOAD DUP3 DUP2 MSTORE PUSH1 0x1 PUSH1 0x1 PUSH1 0xA0 SHL SUB DUP3 AND SWAP1 PUSH32 0xCC16F5DBB4873280815C1EE09DBD06736CFFCC184412CF7A71A0FDB75D397CA5 SWAP1 PUSH1 0x20 ADD PUSH1 0x40 MLOAD DUP1 SWAP2 SUB SWAP1 LOG2 POP POP JUMP JUMPDEST PUSH1 0x0 SLOAD PUSH1 0x1 PUSH1 0x1 PUSH1 0xA0 SHL SUB AND CALLER EQ PUSH2 0x5C5 JUMPI PUSH1 0x40 MLOAD PUSH3 0x461BCD PUSH1 0xE5 SHL DUP2 MSTORE PUSH1 0x20 PUSH1 0x4 DUP3 ADD DUP2 SWAP1 MSTORE PUSH1 0x24 DUP3 ADD MSTORE PUSH32 0x4F776E61626C653A2063616C6C6572206973206E6F7420746865206F776E6572 PUSH1 0x44 DUP3 ADD MSTORE PUSH1 0x64 ADD PUSH2 0x425 JUMP JUMPDEST PUSH1 0x0 DUP1 SLOAD PUSH1 0x40 MLOAD PUSH1 0x1 PUSH1 0x1 PUSH1 0xA0 SHL SUB SWAP1 SWAP2 AND SWAP1 PUSH32 0x8BE0079C531659141344CD1FD0A4F28419497F9722A3DAAFE3B4186F6B6457E0 SWAP1 DUP4 SWAP1 LOG3 PUSH1 0x0 DUP1 SLOAD PUSH1 0x1 PUSH1 0x1 PUSH1 0xA0 SHL SUB NOT AND SWAP1 SSTORE JUMP JUMPDEST PUSH1 0x60 PUSH1 0x5 DUP1 SLOAD PUSH2 0x298 SWAP1 PUSH2 0xC64 JUMP JUMPDEST PUSH1 0x0 PUSH2 0x328 CALLER DUP5 PUSH2 0x38C DUP6 PUSH1 0x40 MLOAD DUP1 PUSH1 0x60 ADD PUSH1 0x40 MSTORE DUP1 PUSH1 0x25 DUP2 MSTORE PUSH1 0x20 ADD PUSH2 0xD29 PUSH1 0x25 SWAP2 CODECOPY CALLER PUSH1 0x0 SWAP1 DUP2 MSTORE PUSH1 0x2 PUSH1 0x20 SWAP1 DUP2 MSTORE PUSH1 0x40 DUP1 DUP4 KECCAK256 PUSH1 0x1 PUSH1 0x1 PUSH1 0xA0 SHL SUB DUP14 AND DUP5 MSTORE SWAP1 SWAP2 MSTORE SWAP1 KECCAK256 SLOAD SWAP2 SWAP1 PUSH2 0x98B JUMP JUMPDEST PUSH1 0x0 PUSH2 0x328 CALLER DUP5 DUP5 PUSH2 0x805 JUMP JUMPDEST PUSH1 0x0 SLOAD PUSH1 0x1 PUSH1 0x1 PUSH1 0xA0 SHL SUB AND CALLER EQ PUSH2 0x6D4 JUMPI PUSH1 0x40 MLOAD PUSH3 0x461BCD PUSH1 0xE5 SHL DUP2 MSTORE PUSH1 0x20 PUSH1 0x4 DUP3 ADD DUP2 SWAP1 MSTORE PUSH1 0x24 DUP3 ADD MSTORE PUSH32 0x4F776E61626C653A2063616C6C6572206973206E6F7420746865206F776E6572 PUSH1 0x44 DUP3 ADD MSTORE PUSH1 0x64 ADD PUSH2 0x425 JUMP JUMPDEST PUSH2 0x6DD DUP2 PUSH2 0xA6D JUMP JUMPDEST POP JUMP JUMPDEST PUSH1 0x1 PUSH1 0x1 PUSH1 0xA0 SHL SUB DUP4 AND PUSH2 0x742 JUMPI PUSH1 0x40 MLOAD PUSH3 0x461BCD PUSH1 0xE5 SHL DUP2 MSTORE PUSH1 0x20 PUSH1 0x4 DUP3 ADD MSTORE PUSH1 0x24 DUP1 DUP3 ADD MSTORE PUSH32 0x42455032303A20617070726F76652066726F6D20746865207A65726F20616464 PUSH1 0x44 DUP3 ADD MSTORE PUSH4 0x72657373 PUSH1 0xE0 SHL PUSH1 0x64 DUP3 ADD MSTORE PUSH1 0x84 ADD PUSH2 0x425 JUMP JUMPDEST PUSH1 0x1 PUSH1 0x1 PUSH1 0xA0 SHL SUB DUP3 AND PUSH2 0x7A3 JUMPI PUSH1 0x40 MLOAD PUSH3 0x461BCD PUSH1 0xE5 SHL DUP2 MSTORE PUSH1 0x20 PUSH1 0x4 DUP3 ADD MSTORE PUSH1 0x22 PUSH1 0x24 DUP3 ADD MSTORE PUSH32 0x42455032303A20617070726F766520746F20746865207A65726F206164647265 PUSH1 0x44 DUP3 ADD MSTORE PUSH2 0x7373 PUSH1 0xF0 SHL PUSH1 0x64 DUP3 ADD MSTORE PUSH1 0x84 ADD PUSH2 0x425 JUMP JUMPDEST PUSH1 0x1 PUSH1 0x1 PUSH1 0xA0 SHL SUB DUP4 DUP2 AND PUSH1 0x0 DUP2 DUP2 MSTORE PUSH1 0x2 PUSH1 0x20 SWAP1 DUP2 MSTORE PUSH1 0x40 DUP1 DUP4 KECCAK256 SWAP5 DUP8 AND DUP1 DUP5 MSTORE SWAP5 DUP3 MSTORE SWAP2 DUP3 SWAP1 KECCAK256 DUP6 SWAP1 SSTORE SWAP1 MLOAD DUP5 DUP2 MSTORE PUSH32 0x8C5BE1E5EBEC7D5BD14F71427D1E84F3DD0314C0F7B2291E5B200AC8C7C3B925 SWAP2 ADD JUMPDEST PUSH1 0x40 MLOAD DUP1 SWAP2 SUB SWAP1 LOG3 POP POP POP JUMP JUMPDEST PUSH1 0x1 PUSH1 0x1 PUSH1 0xA0 SHL SUB DUP4 AND PUSH2 0x869 JUMPI PUSH1 0x40 MLOAD PUSH3 0x461BCD PUSH1 0xE5 SHL DUP2 MSTORE PUSH1 0x20 PUSH1 0x4 DUP3 ADD MSTORE PUSH1 0x25 PUSH1 0x24 DUP3 ADD MSTORE PUSH32 0x42455032303A207472616E736665722066726F6D20746865207A65726F206164 PUSH1 0x44 DUP3 ADD MSTORE PUSH5 0x6472657373 PUSH1 0xD8 SHL PUSH1 0x64 DUP3 ADD MSTORE PUSH1 0x84 ADD PUSH2 0x425 JUMP JUMPDEST PUSH1 0x1 PUSH1 0x1 PUSH1 0xA0 SHL SUB DUP3 AND PUSH2 0x8CB JUMPI PUSH1 0x40 MLOAD PUSH3 0x461BCD PUSH1 0xE5 SHL DUP2 MSTORE PUSH1 0x20 PUSH1 0x4 DUP3 ADD MSTORE PUSH1 0x23 PUSH1 0x24 DUP3 ADD MSTORE PUSH32 0x42455032303A207472616E7366657220746F20746865207A65726F2061646472 PUSH1 0x44 DUP3 ADD MSTORE PUSH3 0x657373 PUSH1 0xE8 SHL PUSH1 0x64 DUP3 ADD MSTORE PUSH1 0x84 ADD PUSH2 0x425 JUMP JUMPDEST PUSH2 0x908 DUP2 PUSH1 0x40 MLOAD DUP1 PUSH1 0x60 ADD PUSH1 0x40 MSTORE DUP1 PUSH1 0x26 DUP2 MSTORE PUSH1 0x20 ADD PUSH2 0xD03 PUSH1 0x26 SWAP2 CODECOPY PUSH1 0x1 PUSH1 0x1 PUSH1 0xA0 SHL SUB DUP7 AND PUSH1 0x0 SWAP1 DUP2 MSTORE PUSH1 0x1 PUSH1 0x20 MSTORE PUSH1 0x40 SWAP1 KECCAK256 SLOAD SWAP2 SWAP1 PUSH2 0x98B JUMP JUMPDEST PUSH1 0x1 PUSH1 0x1 PUSH1 0xA0 SHL SUB DUP1 DUP6 AND PUSH1 0x0 SWAP1 DUP2 MSTORE PUSH1 0x1 PUSH1 0x20 MSTORE PUSH1 0x40 DUP1 DUP3 KECCAK256 SWAP4 SWAP1 SWAP4 SSTORE SWAP1 DUP5 AND DUP2 MSTORE KECCAK256 SLOAD PUSH2 0x937 SWAP1 DUP3 PUSH2 0x9C5 JUMP JUMPDEST PUSH1 0x1 PUSH1 0x1 PUSH1 0xA0 SHL SUB DUP1 DUP5 AND PUSH1 0x0 DUP2 DUP2 MSTORE PUSH1 0x1 PUSH1 0x20 MSTORE PUSH1 0x40 SWAP1 DUP2 SWAP1 KECCAK256 SWAP4 SWAP1 SWAP4 SSTORE SWAP2 MLOAD SWAP1 DUP6 AND SWAP1 PUSH32 0xDDF252AD1BE2C89B69C2B068FC378DAA952BA7F163C4A11628F55A4DF523B3EF SWAP1 PUSH2 0x7F8 SWAP1 DUP6 DUP2 MSTORE PUSH1 0x20 ADD SWAP1 JUMP JUMPDEST PUSH1 0x0 DUP2 DUP5 DUP5 GT ISZERO PUSH2 0x9AF JUMPI PUSH1 0x40 MLOAD PUSH3 0x461BCD PUSH1 0xE5 SHL DUP2 MSTORE PUSH1 0x4 ADD PUSH2 0x425 SWAP2 SWAP1 PUSH2 0xB2D JUMP JUMPDEST POP PUSH1 0x0 PUSH2 0x9BC DUP5 DUP7 PUSH2 0xCB4 JUMP JUMPDEST SWAP6 SWAP5 POP POP POP POP POP JUMP JUMPDEST PUSH1 0x0 DUP1 PUSH2 0x9D2 DUP4 DUP6 PUSH2 0xCC7 JUMP JUMPDEST SWAP1 POP DUP4 DUP2 LT ISZERO PUSH2 0xA24 JUMPI PUSH1 0x40 MLOAD PUSH3 0x461BCD PUSH1 0xE5 SHL DUP2 MSTORE PUSH1 0x20 PUSH1 0x4 DUP3 ADD MSTORE PUSH1 0x1B PUSH1 0x24 DUP3 ADD MSTORE PUSH32 0x536166654D6174683A206164646974696F6E206F766572666C6F770000000000 PUSH1 0x44 DUP3 ADD MSTORE PUSH1 0x64 ADD PUSH2 0x425 JUMP JUMPDEST SWAP4 SWAP3 POP POP POP JUMP JUMPDEST PUSH1 0x0 PUSH2 0xA24 DUP4 DUP4 PUSH1 0x40 MLOAD DUP1 PUSH1 0x40 ADD PUSH1 0x40 MSTORE DUP1 PUSH1 0x1E DUP2 MSTORE PUSH1 0x20 ADD PUSH32 0x536166654D6174683A207375627472616374696F6E206F766572666C6F770000 DUP2 MSTORE POP PUSH2 0x98B JUMP JUMPDEST PUSH1 0x1 PUSH1 0x1 PUSH1 0xA0 SHL SUB DUP2 AND PUSH2 0xAD2 JUMPI PUSH1 0x40 MLOAD PUSH3 0x461BCD PUSH1 0xE5 SHL DUP2 MSTORE PUSH1 0x20 PUSH1 0x4 DUP3 ADD MSTORE PUSH1 0x26 PUSH1 0x24 DUP3 ADD MSTORE PUSH32 0x4F776E61626C653A206E6577206F776E657220697320746865207A65726F2061 PUSH1 0x44 DUP3 ADD MSTORE PUSH6 0x646472657373 PUSH1 0xD0 SHL PUSH1 0x64 DUP3 ADD MSTORE PUSH1 0x84 ADD PUSH2 0x425 JUMP JUMPDEST PUSH1 0x0 DUP1 SLOAD PUSH1 0x40 MLOAD PUSH1 0x1 PUSH1 0x1 PUSH1 0xA0 SHL SUB DUP1 DUP6 AND SWAP4 SWAP3 AND SWAP2 PUSH32 0x8BE0079C531659141344CD1FD0A4F28419497F9722A3DAAFE3B4186F6B6457E0 SWAP2 LOG3 PUSH1 0x0 DUP1 SLOAD PUSH1 0x1 PUSH1 0x1 PUSH1 0xA0 SHL SUB NOT AND PUSH1 0x1 PUSH1 0x1 PUSH1 0xA0 SHL SUB SWAP3 SWAP1 SWAP3 AND SWAP2 SWAP1 SWAP2 OR SWAP1 SSTORE JUMP JUMPDEST PUSH1 0x0 PUSH1 0x20 DUP1 DUP4 MSTORE DUP4 MLOAD DUP1 DUP3 DUP6 ADD MSTORE PUSH1 0x0 JUMPDEST DUP2 DUP2 LT ISZERO PUSH2 0xB5A JUMPI DUP6 DUP2 ADD DUP4 ADD MLOAD DUP6 DUP3 ADD PUSH1 0x40 ADD MSTORE DUP3 ADD PUSH2 0xB3E JUMP JUMPDEST POP PUSH1 0x0 PUSH1 0x40 DUP3 DUP7 ADD ADD MSTORE PUSH1 0x40 PUSH1 0x1F NOT PUSH1 0x1F DUP4 ADD AND DUP6 ADD ADD SWAP3 POP POP POP SWAP3 SWAP2 POP POP JUMP JUMPDEST DUP1 CALLDATALOAD PUSH1 0x1 PUSH1 0x1 PUSH1 0xA0 SHL SUB DUP2 AND DUP2 EQ PUSH2 0xB92 JUMPI PUSH1 0x0 DUP1 REVERT JUMPDEST SWAP2 SWAP1 POP JUMP JUMPDEST PUSH1 0x0 DUP1 PUSH1 0x40 DUP4 DUP6 SUB SLT ISZERO PUSH2 0xBAA JUMPI PUSH1 0x0 DUP1 REVERT JUMPDEST PUSH2 0xBB3 DUP4 PUSH2 0xB7B JUMP JUMPDEST SWAP5 PUSH1 0x20 SWAP4 SWAP1 SWAP4 ADD CALLDATALOAD SWAP4 POP POP POP JUMP JUMPDEST PUSH1 0x0 DUP1 PUSH1 0x0 PUSH1 0x60 DUP5 DUP7 SUB SLT ISZERO PUSH2 0xBD6 JUMPI PUSH1 0x0 DUP1 REVERT JUMPDEST PUSH2 0xBDF DUP5 PUSH2 0xB7B JUMP JUMPDEST SWAP3 POP PUSH2 0xBED PUSH1 0x20 DUP6 ADD PUSH2 0xB7B JUMP JUMPDEST SWAP2 POP PUSH1 0x40 DUP5 ADD CALLDATALOAD SWAP1 POP SWAP3 POP SWAP3 POP SWAP3 JUMP JUMPDEST PUSH1 0x0 PUSH1 0x20 DUP3 DUP5 SUB SLT ISZERO PUSH2 0xC0F JUMPI PUSH1 0x0 DUP1 REVERT JUMPDEST POP CALLDATALOAD SWAP2 SWAP1 POP JUMP JUMPDEST PUSH1 0x0 PUSH1 0x20 DUP3 DUP5 SUB SLT ISZERO PUSH2 0xC28 JUMPI PUSH1 0x0 DUP1 REVERT JUMPDEST PUSH2 0xA24 DUP3 PUSH2 0xB7B JUMP JUMPDEST PUSH1 0x0 DUP1 PUSH1 0x40 DUP4 DUP6 SUB SLT ISZERO PUSH2 0xC44 JUMPI PUSH1 0x0 DUP1 REVERT JUMPDEST PUSH2 0xC4D DUP4 PUSH2 0xB7B JUMP JUMPDEST SWAP2 POP PUSH2 0xC5B PUSH1 0x20 DUP5 ADD PUSH2 0xB7B JUMP JUMPDEST SWAP1 POP SWAP3 POP SWAP3 SWAP1 POP JUMP JUMPDEST PUSH1 0x1 DUP2 DUP2 SHR SWAP1 DUP3 AND DUP1 PUSH2 0xC78 JUMPI PUSH1 0x7F DUP3 AND SWAP2 POP JUMPDEST PUSH1 0x20 DUP3 LT DUP2 SUB PUSH2 0xC98 JUMPI PUSH4 0x4E487B71 PUSH1 0xE0 SHL PUSH1 0x0 MSTORE PUSH1 0x22 PUSH1 0x4 MSTORE PUSH1 0x24 PUSH1 0x0 REVERT JUMPDEST POP SWAP2 SWAP1 POP JUMP JUMPDEST PUSH4 0x4E487B71 PUSH1 0xE0 SHL PUSH1 0x0 MSTORE PUSH1 0x11 PUSH1 0x4 MSTORE PUSH1 0x24 PUSH1 0x0 REVERT JUMPDEST DUP2 DUP2 SUB DUP2 DUP2 GT ISZERO PUSH2 0x32C JUMPI PUSH2 0x32C PUSH2 0xC9E JUMP JUMPDEST DUP1 DUP3 ADD DUP1 DUP3 GT ISZERO PUSH2 0x32C JUMPI PUSH2 0x32C PUSH2 0xC9E JUMP INVALID TIMESTAMP GASLIMIT POP ORIGIN ADDRESS GASPRICE KECCAK256 PUSH21 0x72616E7366657220616D6F756E7420657863656564 PUSH20 0x20616C6C6F77616E636542455032303A20747261 PUSH15 0x7366657220616D6F756E7420657863 PUSH6 0x656473206261 PUSH13 0x616E636542455032303A206465 PUSH4 0x72656173 PUSH6 0x6420616C6C6F PUSH24 0x616E63652062656C6F77207A65726FA26469706673582212 KECCAK256 0x5F 0xD7 0xEB STOP 0x21 0xC2 GT PUSH8 0xDEECF905A9DD195E 0x1E SGT JUMPDEST PUSH2 0x942F PUSH5 0x2D79029F28 DUP3 DUP14 RETURN DUP13 PUSH5 0x736F6C6343 STOP ADDMOD SLT STOP CALLER "
				},
				"gasEstimates": {
					"creation": {
						"codeDepositCost": "691800",
						"executionCost": "infinite",
						"totalCost": "infinite"
					},
					"external": {
						"allowance(address,address)": "infinite",
						"approve(address,uint256)": "24644",
						"balanceOf(address)": "2626",
						"burn(uint256)": "infinite",
						"decimals()": "2312",
						"decreaseAllowance(address,uint256)": "infinite",
						"getOwner()": "2365",
						"increaseAllowance(address,uint256)": "infinite",
						"name()": "infinite",
						"owner()": "2398",
						"renounceOwnership()": "30188",
						"symbol()": "infinite",
						"totalSupply()": "2349",
						"transfer(address,uint256)": "infinite",
						"transferFrom(address,address,uint256)": "infinite",
						"transferOwnership(address)": "30517"
					},
					"internal": {
						"_approve(address,address,uint256)": "infinite",
						"_burn(address,uint256)": "infinite",
						"_burnFrom(address,uint256)": "infinite",
						"_transfer(address,address,uint256)": "infinite"
					}
				},
				"methodIdentifiers": {
					"allowance(address,address)": "dd62ed3e",
					"approve(address,uint256)": "095ea7b3",
					"balanceOf(address)": "70a08231",
					"burn(uint256)": "42966c68",
					"decimals()": "313ce567",
					"decreaseAllowance(address,uint256)": "a457c2d7",
					"getOwner()": "893d20e8",
					"increaseAllowance(address,uint256)": "39509351",
					"name()": "06fdde03",
					"owner()": "8da5cb5b",
					"renounceOwnership()": "715018a6",
					"symbol()": "95d89b41",
					"totalSupply()": "18160ddd",
					"transfer(address,uint256)": "a9059cbb",
					"transferFrom(address,address,uint256)": "23b872dd",
					"transferOwnership(address)": "f2fde38b"
				}
			},
			"storageLayout": {
				"storage": [
					{
						"astId": 324,
						"contract": "contracts/ROACHCOIN.sol:BEP20Token",
						"label": "_owner",
						"offset": 0,
						"slot": "0",
						"type": "t_address"
					},
					{
						"astId": 449,
						"contract": "contracts/ROACHCOIN.sol:BEP20Token",
						"label": "_balances",
						"offset": 0,
						"slot": "1",
						"type": "t_mapping(t_address,t_uint256)"
					},
					{
						"astId": 455,
						"contract": "contracts/ROACHCOIN.sol:BEP20Token",
						"label": "_allowances",
						"offset": 0,
						"slot": "2",
						"type": "t_mapping(t_address,t_mapping(t_address,t_uint256))"
					},
					{
						"astId": 457,
						"contract": "contracts/ROACHCOIN.sol:BEP20Token",
						"label": "_totalSupply",
						"offset": 0,
						"slot": "3",
						"type": "t_uint256"
					},
					{
						"astId": 459,
						"contract": "contracts/ROACHCOIN.sol:BEP20Token",
						"label": "_decimals",
						"offset": 0,
						"slot": "4",
						"type": "t_uint8"
					},
					{
						"astId": 461,
						"contract": "contracts/ROACHCOIN.sol:BEP20Token",
						"label": "_symbol",
						"offset": 0,
						"slot": "5",
						"type": "t_string_storage"
					},
					{
						"astId": 463,
						"contract": "contracts/ROACHCOIN.sol:BEP20Token",
						"label": "_name",
						"offset": 0,
						"slot": "6",
						"type": "t_string_storage"
					}
				],
				"types": {
					"t_address": {
						"encoding": "inplace",
						"label": "address",
						"numberOfBytes": "20"
					},
					"t_mapping(t_address,t_mapping(t_address,t_uint256))": {
						"encoding": "mapping",
						"key": "t_address",
						"label": "mapping(address => mapping(address => uint256))",
						"numberOfBytes": "32",
						"value": "t_mapping(t_address,t_uint256)"
					},
					"t_mapping(t_address,t_uint256)": {
						"encoding": "mapping",
						"key": "t_address",
						"label": "mapping(address => uint256)",
						"numberOfBytes": "32",
						"value": "t_uint256"
					},
					"t_string_storage": {
						"encoding": "bytes",
						"label": "string",
						"numberOfBytes": "32"
					},
					"t_uint256": {
						"encoding": "inplace",
						"label": "uint256",
						"numberOfBytes": "32"
					},
					"t_uint8": {
						"encoding": "inplace",
						"label": "uint8",
						"numberOfBytes": "1"
					}
				}
			},
			"userdoc": {
				"kind": "user",
				"methods": {},
				"version": 1
			}
		}
	}
}